{
  "_format": "hh-sol-artifact-1",
  "contractName": "ArbitrumBridge",
  "sourceName": "contracts/ArbitrumBridge.sol",
  "abi": [
    {
      "inputs": [
        {
          "internalType": "contract ISmolBirb",
          "name": "_smolBirbAddress",
          "type": "address"
        }
      ],
      "stateMutability": "nonpayable",
      "type": "constructor"
    },
    {
      "anonymous": false,
      "inputs": [
        {
          "indexed": false,
          "internalType": "address",
          "name": "depositor",
          "type": "address"
        },
        {
          "indexed": false,
          "internalType": "uint256[]",
          "name": "tokenIds",
          "type": "uint256[]"
        }
      ],
      "name": "Burnt",
      "type": "event"
    },
    {
      "anonymous": false,
      "inputs": [
        {
          "indexed": false,
          "internalType": "address",
          "name": "withdrawer",
          "type": "address"
        },
        {
          "indexed": false,
          "internalType": "uint256[]",
          "name": "tokenIds",
          "type": "uint256[]"
        }
      ],
      "name": "Minted",
      "type": "event"
    },
    {
      "anonymous": false,
      "inputs": [
        {
          "indexed": true,
          "internalType": "address",
          "name": "previousOwner",
          "type": "address"
        },
        {
          "indexed": true,
          "internalType": "address",
          "name": "newOwner",
          "type": "address"
        }
      ],
      "name": "OwnershipTransferred",
      "type": "event"
    },
    {
      "anonymous": false,
      "inputs": [
        {
          "indexed": false,
          "internalType": "address",
          "name": "account",
          "type": "address"
        }
      ],
      "name": "Paused",
      "type": "event"
    },
    {
      "anonymous": false,
      "inputs": [
        {
          "indexed": false,
          "internalType": "address",
          "name": "account",
          "type": "address"
        }
      ],
      "name": "Unpaused",
      "type": "event"
    },
    {
      "inputs": [
        {
          "internalType": "uint256[]",
          "name": "tokenIds",
          "type": "uint256[]"
        }
      ],
      "name": "burn",
      "outputs": [],
      "stateMutability": "nonpayable",
      "type": "function"
    },
    {
      "inputs": [
        {
          "internalType": "address",
          "name": "_newSigner",
          "type": "address"
        }
      ],
      "name": "changeSigner",
      "outputs": [],
      "stateMutability": "nonpayable",
      "type": "function"
    },
    {
      "inputs": [
        {
          "internalType": "uint256[]",
          "name": "tokenIds",
          "type": "uint256[]"
        },
        {
          "internalType": "bytes",
          "name": "signature",
          "type": "bytes"
        },
        {
          "internalType": "uint256",
          "name": "_nonce",
          "type": "uint256"
        }
      ],
      "name": "mint",
      "outputs": [],
      "stateMutability": "nonpayable",
      "type": "function"
    },
    {
      "inputs": [
        {
          "internalType": "uint256",
          "name": "",
          "type": "uint256"
        }
      ],
      "name": "nonceUsed",
      "outputs": [
        {
          "internalType": "bool",
          "name": "",
          "type": "bool"
        }
      ],
      "stateMutability": "view",
      "type": "function"
    },
    {
      "inputs": [
        {
          "internalType": "address",
          "name": "",
          "type": "address"
        },
        {
          "internalType": "address",
          "name": "",
          "type": "address"
        },
        {
          "internalType": "uint256",
          "name": "",
          "type": "uint256"
        },
        {
          "internalType": "bytes",
          "name": "",
          "type": "bytes"
        }
      ],
      "name": "onERC721Received",
      "outputs": [
        {
          "internalType": "bytes4",
          "name": "",
          "type": "bytes4"
        }
      ],
      "stateMutability": "pure",
      "type": "function"
    },
    {
      "inputs": [],
      "name": "owner",
      "outputs": [
        {
          "internalType": "address",
          "name": "",
          "type": "address"
        }
      ],
      "stateMutability": "view",
      "type": "function"
    },
    {
      "inputs": [],
      "name": "pause",
      "outputs": [],
      "stateMutability": "nonpayable",
      "type": "function"
    },
    {
      "inputs": [],
      "name": "paused",
      "outputs": [
        {
          "internalType": "bool",
          "name": "",
          "type": "bool"
        }
      ],
      "stateMutability": "view",
      "type": "function"
    },
    {
      "inputs": [],
      "name": "renounceOwnership",
      "outputs": [],
      "stateMutability": "nonpayable",
      "type": "function"
    },
    {
      "inputs": [],
      "name": "signer",
      "outputs": [
        {
          "internalType": "address",
          "name": "",
          "type": "address"
        }
      ],
      "stateMutability": "view",
      "type": "function"
    },
    {
      "inputs": [],
      "name": "smolBirb",
      "outputs": [
        {
          "internalType": "contract ISmolBirb",
          "name": "",
          "type": "address"
        }
      ],
      "stateMutability": "view",
      "type": "function"
    },
    {
      "inputs": [
        {
          "internalType": "address",
          "name": "newOwner",
          "type": "address"
        }
      ],
      "name": "transferOwnership",
      "outputs": [],
      "stateMutability": "nonpayable",
      "type": "function"
    },
    {
      "inputs": [],
      "name": "unPause",
      "outputs": [],
      "stateMutability": "nonpayable",
      "type": "function"
    }
  ],
  "bytecode": "0x60a0604052600180546001600160a01b0319167321dfea78442657c9c61802b879b5b2d4a2783f6617905534801561003657600080fd5b50604051610fdd380380610fdd83398101604081905261005591610126565b61005e336100d6565b6000805460ff60a01b191690556001600160a01b038116608081905260405163a22cb46560e01b8152600481018290526001602482015263a22cb46590604401600060405180830381600087803b1580156100b857600080fd5b505af11580156100cc573d6000803e3d6000fd5b5050505050610156565b600080546001600160a01b038381166001600160a01b0319831681178455604051919092169283917f8be0079c531659141344cd1fd0a4f28419497f9722a3daafe3b4186f6b6457e09190a35050565b60006020828403121561013857600080fd5b81516001600160a01b038116811461014f57600080fd5b9392505050565b608051610e5e61017f600039600081816101ca015281816103e401526105cb0152610e5e6000f3fe608060405234801561001057600080fd5b50600436106100cf5760003560e01c80638da5cb5b1161008c578063aff0b5cc11610066578063aff0b5cc146101c5578063b80f55c9146101ec578063f2fde38b146101ff578063f7b188a51461021257600080fd5b80638da5cb5b1461017e57806394d0d3a61461018f578063aad2b723146101b257600080fd5b80630bd6eccc146100d4578063150b7a02146100e9578063238ac933146101255780635c975abb14610150578063715018a61461016e5780638456cb5914610176575b600080fd5b6100e76100e2366004610af5565b61021a565b005b6101076100f7366004610bc6565b630a85bd0160e11b949350505050565b6040516001600160e01b031990911681526020015b60405180910390f35b600154610138906001600160a01b031681565b6040516001600160a01b03909116815260200161011c565b600054600160a01b900460ff165b604051901515815260200161011c565b6100e7610491565b6100e76104c7565b6000546001600160a01b0316610138565b61015e61019d366004610ca2565b60026020526000908152604090205460ff1681565b6100e76101c0366004610cbb565b6104f9565b6101387f000000000000000000000000000000000000000000000000000000000000000081565b6100e76101fa366004610cdd565b61058a565b6100e761020d366004610cbb565b610675565b6100e7610710565b600054600160a01b900460ff161561024d5760405162461bcd60e51b815260040161024490610d1f565b60405180910390fd5b60008181526002602052604090205460ff16156102a15760405162461bcd60e51b8152602060048201526012602482015271139bdb98d948185b1c9958591e481d5cd95960721b6044820152606401610244565b600154604080516020601f86018190048102820181019092528481526001600160a01b0390921691610368918690869081908401838280828437600092019190915250506040516103629250610302915033908b908b908990602001610d49565b60408051601f1981840301815282825280516020918201207f19457468657265756d205369676e6564204d6573736167653a0a33320000000084830152603c8085019190915282518085039091018152605c909301909152815191012090565b90610742565b6001600160a01b0316146103b45760405162461bcd60e51b815260206004820152601360248201527214da59db985d1d5c99481b9bdd081d985b1a59606a1b6044820152606401610244565b60008181526002602052604090819020805460ff191660011790555163de836ebd60e01b81526001600160a01b037f0000000000000000000000000000000000000000000000000000000000000000169063de836ebd9061041d90339089908990600401610da6565b600060405180830381600087803b15801561043757600080fd5b505af115801561044b573d6000803e3d6000fd5b505050507f2625f80a8d24fb2b4a5f95be0398a21b27d1ed1677f4a3140fbdd87015b525a433868660405161048293929190610da6565b60405180910390a15050505050565b6000546001600160a01b031633146104bb5760405162461bcd60e51b815260040161024490610df3565b6104c56000610953565b565b6000546001600160a01b031633146104f15760405162461bcd60e51b815260040161024490610df3565b6104c56109a3565b6000546001600160a01b031633146105235760405162461bcd60e51b815260040161024490610df3565b6001600160a01b0381166105685760405162461bcd60e51b815260206004820152600c60248201526b5a65726f204164647265737360a01b6044820152606401610244565b600180546001600160a01b0319166001600160a01b0392909216919091179055565b600054600160a01b900460ff16156105b45760405162461bcd60e51b815260040161024490610d1f565b6040516389af610760e01b81526001600160a01b037f000000000000000000000000000000000000000000000000000000000000000016906389af61079061060490339086908690600401610da6565b600060405180830381600087803b15801561061e57600080fd5b505af1158015610632573d6000803e3d6000fd5b505050507f7661fd44da58f15480fdf2f43217fa07ce321e59649906c9fa7aeb484618e34133838360405161066993929190610da6565b60405180910390a15050565b6000546001600160a01b0316331461069f5760405162461bcd60e51b815260040161024490610df3565b6001600160a01b0381166107045760405162461bcd60e51b815260206004820152602660248201527f4f776e61626c653a206e6577206f776e657220697320746865207a65726f206160448201526564647265737360d01b6064820152608401610244565b61070d81610953565b50565b6000546001600160a01b0316331461073a5760405162461bcd60e51b815260040161024490610df3565b6104c5610a25565b600081516041146107955760405162461bcd60e51b815260206004820152601f60248201527f45434453413a20696e76616c6964207369676e6174757265206c656e677468006044820152606401610244565b60208201516040830151606084015160001a7f7fffffffffffffffffffffffffffffff5d576e7357a4501ddfe92f46681b20a08211156108225760405162461bcd60e51b815260206004820152602260248201527f45434453413a20696e76616c6964207369676e6174757265202773272076616c604482015261756560f01b6064820152608401610244565b8060ff16601b1415801561083a57508060ff16601c14155b156108925760405162461bcd60e51b815260206004820152602260248201527f45434453413a20696e76616c6964207369676e6174757265202776272076616c604482015261756560f01b6064820152608401610244565b6040805160008082526020820180845289905260ff841692820192909252606081018590526080810184905260019060a0016020604051602081039080840390855afa1580156108e6573d6000803e3d6000fd5b5050604051601f1901519150506001600160a01b0381166109495760405162461bcd60e51b815260206004820152601860248201527f45434453413a20696e76616c6964207369676e617475726500000000000000006044820152606401610244565b9695505050505050565b600080546001600160a01b038381166001600160a01b0319831681178455604051919092169283917f8be0079c531659141344cd1fd0a4f28419497f9722a3daafe3b4186f6b6457e09190a35050565b600054600160a01b900460ff16156109cd5760405162461bcd60e51b815260040161024490610d1f565b6000805460ff60a01b1916600160a01b1790557f62e78cea01bee320cd4e420270b5ea74000d11b0c9f74754ebdbfc544b05a258610a083390565b6040516001600160a01b03909116815260200160405180910390a1565b600054600160a01b900460ff16610a755760405162461bcd60e51b815260206004820152601460248201527314185d5cd8589b194e881b9bdd081c185d5cd95960621b6044820152606401610244565b6000805460ff60a01b191690557f5db9ee0a495bf2e6ff9c91a7834c1ba4fdd244a5e8aa4e537bd38aeae4b073aa33610a08565b60008083601f840112610abb57600080fd5b50813567ffffffffffffffff811115610ad357600080fd5b6020830191508360208260051b8501011115610aee57600080fd5b9250929050565b600080600080600060608688031215610b0d57600080fd5b853567ffffffffffffffff80821115610b2557600080fd5b610b3189838a01610aa9565b90975095506020880135915080821115610b4a57600080fd5b818801915088601f830112610b5e57600080fd5b813581811115610b6d57600080fd5b896020828501011115610b7f57600080fd5b96999598505060200195604001359392505050565b80356001600160a01b0381168114610bab57600080fd5b919050565b634e487b7160e01b600052604160045260246000fd5b60008060008060808587031215610bdc57600080fd5b610be585610b94565b9350610bf360208601610b94565b925060408501359150606085013567ffffffffffffffff80821115610c1757600080fd5b818701915087601f830112610c2b57600080fd5b813581811115610c3d57610c3d610bb0565b604051601f8201601f19908116603f01168101908382118183101715610c6557610c65610bb0565b816040528281528a6020848701011115610c7e57600080fd5b82602086016020830137600060208483010152809550505050505092959194509250565b600060208284031215610cb457600080fd5b5035919050565b600060208284031215610ccd57600080fd5b610cd682610b94565b9392505050565b60008060208385031215610cf057600080fd5b823567ffffffffffffffff811115610d0757600080fd5b610d1385828601610aa9565b90969095509350505050565b60208082526010908201526f14185d5cd8589b194e881c185d5cd95960821b604082015260600190565b606085901b6bffffffffffffffffffffffff1916815260006001600160fb1b03841115610d7557600080fd5b8360051b8086601485013764343231363160d81b601493909101928301525060198101919091526039019392505050565b6001600160a01b0384168152604060208201819052810182905260006001600160fb1b03831115610dd657600080fd5b8260051b8085606085013760009201606001918252509392505050565b6020808252818101527f4f776e61626c653a2063616c6c6572206973206e6f7420746865206f776e657260408201526060019056fea2646970667358221220ba0dad25502116d467a00956bbd49542f20c3c64062db83625b8e5430cd0be8764736f6c634300080d0033",
  "linkReferences": {},
  "deployedLinkReferences": {}
}