{
  "_format": "hh-sol-artifact-1",
  "contractName": "EthBridge",
  "sourceName": "contracts/EthBridge.sol",
  "abi": [
    {
      "inputs": [
        {
          "internalType": "contract ISmolBirb",
          "name": "_smolBirbAddress",
          "type": "address"
        }
      ],
      "stateMutability": "nonpayable",
      "type": "constructor"
    },
    {
      "anonymous": false,
      "inputs": [
        {
          "indexed": false,
          "internalType": "address",
          "name": "depositor",
          "type": "address"
        },
        {
          "indexed": false,
          "internalType": "uint256[]",
          "name": "tokenIds",
          "type": "uint256[]"
        }
      ],
      "name": "Deposit",
      "type": "event"
    },
    {
      "anonymous": false,
      "inputs": [
        {
          "indexed": true,
          "internalType": "address",
          "name": "previousOwner",
          "type": "address"
        },
        {
          "indexed": true,
          "internalType": "address",
          "name": "newOwner",
          "type": "address"
        }
      ],
      "name": "OwnershipTransferred",
      "type": "event"
    },
    {
      "anonymous": false,
      "inputs": [
        {
          "indexed": false,
          "internalType": "address",
          "name": "account",
          "type": "address"
        }
      ],
      "name": "Paused",
      "type": "event"
    },
    {
      "anonymous": false,
      "inputs": [
        {
          "indexed": false,
          "internalType": "address",
          "name": "account",
          "type": "address"
        }
      ],
      "name": "Unpaused",
      "type": "event"
    },
    {
      "anonymous": false,
      "inputs": [
        {
          "indexed": false,
          "internalType": "address",
          "name": "withdrawer",
          "type": "address"
        },
        {
          "indexed": false,
          "internalType": "uint256[]",
          "name": "tokenIds",
          "type": "uint256[]"
        }
      ],
      "name": "Withdraw",
      "type": "event"
    },
    {
      "inputs": [
        {
          "internalType": "address",
          "name": "_newSigner",
          "type": "address"
        }
      ],
      "name": "changeSigner",
      "outputs": [],
      "stateMutability": "nonpayable",
      "type": "function"
    },
    {
      "inputs": [
        {
          "internalType": "uint256[]",
          "name": "tokenIds",
          "type": "uint256[]"
        }
      ],
      "name": "deposit",
      "outputs": [],
      "stateMutability": "nonpayable",
      "type": "function"
    },
    {
      "inputs": [
        {
          "internalType": "uint256",
          "name": "",
          "type": "uint256"
        }
      ],
      "name": "nonceUsed",
      "outputs": [
        {
          "internalType": "bool",
          "name": "",
          "type": "bool"
        }
      ],
      "stateMutability": "view",
      "type": "function"
    },
    {
      "inputs": [
        {
          "internalType": "address",
          "name": "",
          "type": "address"
        },
        {
          "internalType": "address",
          "name": "",
          "type": "address"
        },
        {
          "internalType": "uint256",
          "name": "",
          "type": "uint256"
        },
        {
          "internalType": "bytes",
          "name": "",
          "type": "bytes"
        }
      ],
      "name": "onERC721Received",
      "outputs": [
        {
          "internalType": "bytes4",
          "name": "",
          "type": "bytes4"
        }
      ],
      "stateMutability": "pure",
      "type": "function"
    },
    {
      "inputs": [],
      "name": "owner",
      "outputs": [
        {
          "internalType": "address",
          "name": "",
          "type": "address"
        }
      ],
      "stateMutability": "view",
      "type": "function"
    },
    {
      "inputs": [],
      "name": "pause",
      "outputs": [],
      "stateMutability": "nonpayable",
      "type": "function"
    },
    {
      "inputs": [],
      "name": "paused",
      "outputs": [
        {
          "internalType": "bool",
          "name": "",
          "type": "bool"
        }
      ],
      "stateMutability": "view",
      "type": "function"
    },
    {
      "inputs": [],
      "name": "renounceOwnership",
      "outputs": [],
      "stateMutability": "nonpayable",
      "type": "function"
    },
    {
      "inputs": [],
      "name": "signer",
      "outputs": [
        {
          "internalType": "address",
          "name": "",
          "type": "address"
        }
      ],
      "stateMutability": "view",
      "type": "function"
    },
    {
      "inputs": [],
      "name": "smolBirb",
      "outputs": [
        {
          "internalType": "contract ISmolBirb",
          "name": "",
          "type": "address"
        }
      ],
      "stateMutability": "view",
      "type": "function"
    },
    {
      "inputs": [
        {
          "internalType": "address",
          "name": "newOwner",
          "type": "address"
        }
      ],
      "name": "transferOwnership",
      "outputs": [],
      "stateMutability": "nonpayable",
      "type": "function"
    },
    {
      "inputs": [],
      "name": "unPause",
      "outputs": [],
      "stateMutability": "nonpayable",
      "type": "function"
    },
    {
      "inputs": [
        {
          "internalType": "uint256[]",
          "name": "tokenIds",
          "type": "uint256[]"
        },
        {
          "internalType": "bytes",
          "name": "signature",
          "type": "bytes"
        },
        {
          "internalType": "uint256",
          "name": "nonce",
          "type": "uint256"
        }
      ],
      "name": "withdraw",
      "outputs": [],
      "stateMutability": "nonpayable",
      "type": "function"
    }
  ],
  "bytecode": "0x60a0604052600180546001600160a01b0319167321dfea78442657c9c61802b879b5b2d4a2783f6617905534801561003657600080fd5b5060405161101f38038061101f833981016040819052610055916100cc565b61005e3361007c565b6000805460ff60a01b191690556001600160a01b03166080526100fc565b600080546001600160a01b038381166001600160a01b0319831681178455604051919092169283917f8be0079c531659141344cd1fd0a4f28419497f9722a3daafe3b4186f6b6457e09190a35050565b6000602082840312156100de57600080fd5b81516001600160a01b03811681146100f557600080fd5b9392505050565b608051610efa610125600039600081816101ca0152818161025a01526106030152610efa6000f3fe608060405234801561001057600080fd5b50600436106100cf5760003560e01c80638da5cb5b1161008c578063aff0b5cc11610066578063aff0b5cc146101c5578063bee0d5f4146101ec578063f2fde38b146101ff578063f7b188a51461021257600080fd5b80638da5cb5b1461017e57806394d0d3a61461018f578063aad2b723146101b257600080fd5b8063150b7a02146100d4578063238ac93314610110578063598b8e711461013b5780635c975abb14610150578063715018a61461016e5780638456cb5914610176575b600080fd5b6100f26100e2366004610b67565b630a85bd0160e11b949350505050565b6040516001600160e01b031990911681526020015b60405180910390f35b600154610123906001600160a01b031681565b6040516001600160a01b039091168152602001610107565b61014e610149366004610c8f565b61021a565b005b600054600160a01b900460ff165b6040519015158152602001610107565b61014e610355565b61014e61038b565b6000546001600160a01b0316610123565b61015e61019d366004610cd1565b60026020526000908152604090205460ff1681565b61014e6101c0366004610cea565b6103bd565b6101237f000000000000000000000000000000000000000000000000000000000000000081565b61014e6101fa366004610d0c565b61044e565b61014e61020d366004610cea565b610701565b61014e61079c565b600054600160a01b900460ff161561024d5760405162461bcd60e51b815260040161024490610dab565b60405180910390fd5b60005b81811015610315577f00000000000000000000000000000000000000000000000000000000000000006001600160a01b03166342842e0e333086868681811061029b5761029b610dd5565b6040516001600160e01b031960e088901b1681526001600160a01b03958616600482015294909316602485015250602090910201356044820152606401600060405180830381600087803b1580156102f257600080fd5b505af1158015610306573d6000803e3d6000fd5b50505050806001019050610250565b507fff409334d2645d660e7cfa41a637aa21f45a79ecb9660a6931aa923bf75577c733838360405161034993929190610deb565b60405180910390a15050565b6000546001600160a01b0316331461037f5760405162461bcd60e51b815260040161024490610e38565b61038960006107ce565b565b6000546001600160a01b031633146103b55760405162461bcd60e51b815260040161024490610e38565b61038961081e565b6000546001600160a01b031633146103e75760405162461bcd60e51b815260040161024490610e38565b6001600160a01b03811661042c5760405162461bcd60e51b815260206004820152600c60248201526b5a65726f204164647265737360a01b6044820152606401610244565b600180546001600160a01b0319166001600160a01b0392909216919091179055565b600054600160a01b900460ff16156104785760405162461bcd60e51b815260040161024490610dab565b60008181526002602052604090205460ff16156104cc5760405162461bcd60e51b8152602060048201526012602482015271139bdb98d948185b1c9958591e481d5cd95960721b6044820152606401610244565b600154604080516020601f86018190048102820181019092528481526001600160a01b03909216916105939186908690819084018382808284376000920191909152505060405161058d925061052d915033908b908b908990602001610e6d565b60408051601f1981840301815282825280516020918201207f19457468657265756d205369676e6564204d6573736167653a0a33320000000084830152603c8085019190915282518085039091018152605c909301909152815191012090565b906108a0565b6001600160a01b0316146105df5760405162461bcd60e51b815260206004820152601360248201527214da59db985d1d5c99481b9bdd081d985b1a59606a1b6044820152606401610244565b6000818152600260205260408120805460ff191660011790555b848110156106be577f00000000000000000000000000000000000000000000000000000000000000006001600160a01b03166342842e0e303389898681811061064457610644610dd5565b6040516001600160e01b031960e088901b1681526001600160a01b03958616600482015294909316602485015250602090910201356044820152606401600060405180830381600087803b15801561069b57600080fd5b505af11580156106af573d6000803e3d6000fd5b505050508060010190506105f9565b507f67e9df8b3c7743c9f1b625ba4f2b4e601206dbd46ed5c33c85a1242e4d23a2d13386866040516106f293929190610deb565b60405180910390a15050505050565b6000546001600160a01b0316331461072b5760405162461bcd60e51b815260040161024490610e38565b6001600160a01b0381166107905760405162461bcd60e51b815260206004820152602660248201527f4f776e61626c653a206e6577206f776e657220697320746865207a65726f206160448201526564647265737360d01b6064820152608401610244565b610799816107ce565b50565b6000546001600160a01b031633146107c65760405162461bcd60e51b815260040161024490610e38565b610389610ab1565b600080546001600160a01b038381166001600160a01b0319831681178455604051919092169283917f8be0079c531659141344cd1fd0a4f28419497f9722a3daafe3b4186f6b6457e09190a35050565b600054600160a01b900460ff16156108485760405162461bcd60e51b815260040161024490610dab565b6000805460ff60a01b1916600160a01b1790557f62e78cea01bee320cd4e420270b5ea74000d11b0c9f74754ebdbfc544b05a2586108833390565b6040516001600160a01b03909116815260200160405180910390a1565b600081516041146108f35760405162461bcd60e51b815260206004820152601f60248201527f45434453413a20696e76616c6964207369676e6174757265206c656e677468006044820152606401610244565b60208201516040830151606084015160001a7f7fffffffffffffffffffffffffffffff5d576e7357a4501ddfe92f46681b20a08211156109805760405162461bcd60e51b815260206004820152602260248201527f45434453413a20696e76616c6964207369676e6174757265202773272076616c604482015261756560f01b6064820152608401610244565b8060ff16601b1415801561099857508060ff16601c14155b156109f05760405162461bcd60e51b815260206004820152602260248201527f45434453413a20696e76616c6964207369676e6174757265202776272076616c604482015261756560f01b6064820152608401610244565b6040805160008082526020820180845289905260ff841692820192909252606081018590526080810184905260019060a0016020604051602081039080840390855afa158015610a44573d6000803e3d6000fd5b5050604051601f1901519150506001600160a01b038116610aa75760405162461bcd60e51b815260206004820152601860248201527f45434453413a20696e76616c6964207369676e617475726500000000000000006044820152606401610244565b9695505050505050565b600054600160a01b900460ff16610b015760405162461bcd60e51b815260206004820152601460248201527314185d5cd8589b194e881b9bdd081c185d5cd95960621b6044820152606401610244565b6000805460ff60a01b191690557f5db9ee0a495bf2e6ff9c91a7834c1ba4fdd244a5e8aa4e537bd38aeae4b073aa33610883565b80356001600160a01b0381168114610b4c57600080fd5b919050565b634e487b7160e01b600052604160045260246000fd5b60008060008060808587031215610b7d57600080fd5b610b8685610b35565b9350610b9460208601610b35565b925060408501359150606085013567ffffffffffffffff80821115610bb857600080fd5b818701915087601f830112610bcc57600080fd5b813581811115610bde57610bde610b51565b604051601f8201601f19908116603f01168101908382118183101715610c0657610c06610b51565b816040528281528a6020848701011115610c1f57600080fd5b82602086016020830137600060208483010152809550505050505092959194509250565b60008083601f840112610c5557600080fd5b50813567ffffffffffffffff811115610c6d57600080fd5b6020830191508360208260051b8501011115610c8857600080fd5b9250929050565b60008060208385031215610ca257600080fd5b823567ffffffffffffffff811115610cb957600080fd5b610cc585828601610c43565b90969095509350505050565b600060208284031215610ce357600080fd5b5035919050565b600060208284031215610cfc57600080fd5b610d0582610b35565b9392505050565b600080600080600060608688031215610d2457600080fd5b853567ffffffffffffffff80821115610d3c57600080fd5b610d4889838a01610c43565b90975095506020880135915080821115610d6157600080fd5b818801915088601f830112610d7557600080fd5b813581811115610d8457600080fd5b896020828501011115610d9657600080fd5b96999598505060200195604001359392505050565b60208082526010908201526f14185d5cd8589b194e881c185d5cd95960821b604082015260600190565b634e487b7160e01b600052603260045260246000fd5b6001600160a01b0384168152604060208201819052810182905260006001600160fb1b03831115610e1b57600080fd5b8260051b8085606085013760009201606001918252509392505050565b6020808252818101527f4f776e61626c653a2063616c6c6572206973206e6f7420746865206f776e6572604082015260600190565b603160f81b8152606085901b6bffffffffffffffffffffffff1916600182015260006001600160fb1b03841115610ea357600080fd5b8360051b80866015850137601592019182019290925260350194935050505056fea2646970667358221220feae402f679fd143dfd3a1671073c6ce672b6c3245bf17c16721f6f80ea3069864736f6c634300080d0033",
  "linkReferences": {},
  "deployedLinkReferences": {}
}