{
  "_format": "hh-sol-artifact-1",
  "contractName": "EthBridge",
  "sourceName": "contracts/EthBridge.sol",
  "abi": [
    {
      "inputs": [],
      "name": "InvalidTokenId",
      "type": "error"
    },
    {
      "anonymous": false,
      "inputs": [
        {
          "indexed": false,
          "internalType": "address",
          "name": "depositor",
          "type": "address"
        },
        {
          "indexed": false,
          "internalType": "uint256[]",
          "name": "tokenIds",
          "type": "uint256[]"
        }
      ],
      "name": "Deposit",
      "type": "event"
    },
    {
      "anonymous": false,
      "inputs": [
        {
          "indexed": false,
          "internalType": "address",
          "name": "withdrawer",
          "type": "address"
        },
        {
          "indexed": false,
          "internalType": "uint256[]",
          "name": "tokenIds",
          "type": "uint256[]"
        }
      ],
      "name": "Withdraw",
      "type": "event"
    },
    {
      "inputs": [
        {
          "internalType": "uint256[]",
          "name": "tokenIds",
          "type": "uint256[]"
        }
      ],
      "name": "deposit",
      "outputs": [],
      "stateMutability": "nonpayable",
      "type": "function"
    },
    {
      "inputs": [
        {
          "internalType": "address",
          "name": "",
          "type": "address"
        },
        {
          "internalType": "address",
          "name": "",
          "type": "address"
        },
        {
          "internalType": "uint256",
          "name": "",
          "type": "uint256"
        },
        {
          "internalType": "bytes",
          "name": "",
          "type": "bytes"
        }
      ],
      "name": "onERC721Received",
      "outputs": [
        {
          "internalType": "bytes4",
          "name": "",
          "type": "bytes4"
        }
      ],
      "stateMutability": "pure",
      "type": "function"
    },
    {
      "inputs": [],
      "name": "smolBirb",
      "outputs": [
        {
          "internalType": "contract ISmolBirb",
          "name": "",
          "type": "address"
        }
      ],
      "stateMutability": "view",
      "type": "function"
    },
    {
      "inputs": [
        {
          "internalType": "uint256",
          "name": "",
          "type": "uint256"
        }
      ],
      "name": "tokenIdDepositor",
      "outputs": [
        {
          "internalType": "address",
          "name": "",
          "type": "address"
        }
      ],
      "stateMutability": "view",
      "type": "function"
    },
    {
      "inputs": [
        {
          "internalType": "uint256[]",
          "name": "tokenIds",
          "type": "uint256[]"
        }
      ],
      "name": "withdraw",
      "outputs": [],
      "stateMutability": "nonpayable",
      "type": "function"
    }
  ],
  "bytecode": "0x6080604052600080546001600160a01b03191673f45af344e0a31ffc270b61cdf1dedaf63107ba5417905534801561003657600080fd5b5061060f806100466000396000f3fe608060405234801561001057600080fd5b50600436106100575760003560e01c806315011be71461005c578063150b7a02146100a2578063598b8e71146100d9578063983d95ce146100ee578063aff0b5cc14610101575b600080fd5b61008561006a3660046103da565b6001602052600090815260409020546001600160a01b031681565b6040516001600160a01b0390911681526020015b60405180910390f35b6100c06100b0366004610425565b630a85bd0160e11b949350505050565b6040516001600160e01b03199091168152602001610099565b6100ec6100e7366004610501565b610114565b005b6100ec6100fc366004610501565b61029e565b600054610085906001600160a01b031681565b60005b8181101561025e5761271083838381811061013457610134610576565b90506020020135118061015f575082828281811061015457610154610576565b905060200201356000145b1561017d576040516307ed98ed60e31b815260040160405180910390fd5b336001600085858581811061019457610194610576565b60209081029290920135835250810191909152604001600090812080546001600160a01b0319166001600160a01b0393841617905554166342842e0e33308686868181106101e4576101e4610576565b6040516001600160e01b031960e088901b1681526001600160a01b03958616600482015294909316602485015250602090910201356044820152606401600060405180830381600087803b15801561023b57600080fd5b505af115801561024f573d6000803e3d6000fd5b50505050806001019050610117565b507fff409334d2645d660e7cfa41a637aa21f45a79ecb9660a6931aa923bf75577c73383836040516102929392919061058c565b60405180910390a15050565b60005b818110156103a6576127108383838181106102be576102be610576565b9050602002013511806102e957508282828181106102de576102de610576565b905060200201356000145b15610307576040516307ed98ed60e31b815260040160405180910390fd5b6000546001600160a01b03166342842e0e303386868681811061032c5761032c610576565b6040516001600160e01b031960e088901b1681526001600160a01b03958616600482015294909316602485015250602090910201356044820152606401600060405180830381600087803b15801561038357600080fd5b505af1158015610397573d6000803e3d6000fd5b505050508060010190506102a1565b507f67e9df8b3c7743c9f1b625ba4f2b4e601206dbd46ed5c33c85a1242e4d23a2d13383836040516102929392919061058c565b6000602082840312156103ec57600080fd5b5035919050565b80356001600160a01b038116811461040a57600080fd5b919050565b634e487b7160e01b600052604160045260246000fd5b6000806000806080858703121561043b57600080fd5b610444856103f3565b9350610452602086016103f3565b925060408501359150606085013567ffffffffffffffff8082111561047657600080fd5b818701915087601f83011261048a57600080fd5b81358181111561049c5761049c61040f565b604051601f8201601f19908116603f011681019083821181831017156104c4576104c461040f565b816040528281528a60208487010111156104dd57600080fd5b82602086016020830137600060208483010152809550505050505092959194509250565b6000806020838503121561051457600080fd5b823567ffffffffffffffff8082111561052c57600080fd5b818501915085601f83011261054057600080fd5b81358181111561054f57600080fd5b8660208260051b850101111561056457600080fd5b60209290920196919550909350505050565b634e487b7160e01b600052603260045260246000fd5b6001600160a01b0384168152604060208201819052810182905260006001600160fb1b038311156105bc57600080fd5b8260051b808560608501376000920160600191825250939250505056fea2646970667358221220b586b92e9c8b5f61f27ff5faa4f1be7d86794c5ec7f00037f11654d977f1c3f464736f6c634300080d0033",
  "linkReferences": {},
  "deployedLinkReferences": {}
}