{
  "_format": "hh-sol-artifact-1",
  "contractName": "EthernalGates",
  "sourceName": "contracts/Ethernal Gates.sol",
  "abi": [
    {
      "inputs": [
        {
          "internalType": "string",
          "name": "baseURI",
          "type": "string"
        }
      ],
      "stateMutability": "nonpayable",
      "type": "constructor"
    },
    {
      "inputs": [],
      "name": "ApprovalCallerNotOwnerNorApproved",
      "type": "error"
    },
    {
      "inputs": [],
      "name": "ApprovalQueryForNonexistentToken",
      "type": "error"
    },
    {
      "inputs": [],
      "name": "ApprovalToCurrentOwner",
      "type": "error"
    },
    {
      "inputs": [],
      "name": "ApproveToCaller",
      "type": "error"
    },
    {
      "inputs": [],
      "name": "BalanceQueryForZeroAddress",
      "type": "error"
    },
    {
      "inputs": [],
      "name": "MintToZeroAddress",
      "type": "error"
    },
    {
      "inputs": [],
      "name": "MintZeroQuantity",
      "type": "error"
    },
    {
      "inputs": [],
      "name": "OwnerQueryForNonexistentToken",
      "type": "error"
    },
    {
      "inputs": [],
      "name": "TransferCallerNotOwnerNorApproved",
      "type": "error"
    },
    {
      "inputs": [],
      "name": "TransferFromIncorrectOwner",
      "type": "error"
    },
    {
      "inputs": [],
      "name": "TransferToNonERC721ReceiverImplementer",
      "type": "error"
    },
    {
      "inputs": [],
      "name": "TransferToZeroAddress",
      "type": "error"
    },
    {
      "inputs": [],
      "name": "URIQueryForNonexistentToken",
      "type": "error"
    },
    {
      "anonymous": false,
      "inputs": [
        {
          "indexed": true,
          "internalType": "address",
          "name": "owner",
          "type": "address"
        },
        {
          "indexed": true,
          "internalType": "address",
          "name": "approved",
          "type": "address"
        },
        {
          "indexed": true,
          "internalType": "uint256",
          "name": "tokenId",
          "type": "uint256"
        }
      ],
      "name": "Approval",
      "type": "event"
    },
    {
      "anonymous": false,
      "inputs": [
        {
          "indexed": true,
          "internalType": "address",
          "name": "owner",
          "type": "address"
        },
        {
          "indexed": true,
          "internalType": "address",
          "name": "operator",
          "type": "address"
        },
        {
          "indexed": false,
          "internalType": "bool",
          "name": "approved",
          "type": "bool"
        }
      ],
      "name": "ApprovalForAll",
      "type": "event"
    },
    {
      "anonymous": false,
      "inputs": [
        {
          "indexed": true,
          "internalType": "address",
          "name": "previousOwner",
          "type": "address"
        },
        {
          "indexed": true,
          "internalType": "address",
          "name": "newOwner",
          "type": "address"
        }
      ],
      "name": "OwnershipTransferred",
      "type": "event"
    },
    {
      "anonymous": false,
      "inputs": [
        {
          "indexed": true,
          "internalType": "address",
          "name": "from",
          "type": "address"
        },
        {
          "indexed": true,
          "internalType": "address",
          "name": "to",
          "type": "address"
        },
        {
          "indexed": true,
          "internalType": "uint256",
          "name": "tokenId",
          "type": "uint256"
        }
      ],
      "name": "Transfer",
      "type": "event"
    },
    {
      "inputs": [],
      "name": "MAX_SUPPLY",
      "outputs": [
        {
          "internalType": "uint256",
          "name": "",
          "type": "uint256"
        }
      ],
      "stateMutability": "view",
      "type": "function"
    },
    {
      "inputs": [
        {
          "internalType": "address[]",
          "name": "_addresses",
          "type": "address[]"
        },
        {
          "internalType": "uint256",
          "name": "_count",
          "type": "uint256"
        }
      ],
      "name": "airdrop",
      "outputs": [],
      "stateMutability": "nonpayable",
      "type": "function"
    },
    {
      "inputs": [
        {
          "internalType": "address",
          "name": "to",
          "type": "address"
        },
        {
          "internalType": "uint256",
          "name": "tokenId",
          "type": "uint256"
        }
      ],
      "name": "approve",
      "outputs": [],
      "stateMutability": "nonpayable",
      "type": "function"
    },
    {
      "inputs": [
        {
          "internalType": "address",
          "name": "owner",
          "type": "address"
        }
      ],
      "name": "balanceOf",
      "outputs": [
        {
          "internalType": "uint256",
          "name": "",
          "type": "uint256"
        }
      ],
      "stateMutability": "view",
      "type": "function"
    },
    {
      "inputs": [
        {
          "internalType": "uint256",
          "name": "_presalePrice",
          "type": "uint256"
        }
      ],
      "name": "changePresalePrice",
      "outputs": [],
      "stateMutability": "nonpayable",
      "type": "function"
    },
    {
      "inputs": [
        {
          "internalType": "uint256",
          "name": "_publicPrice",
          "type": "uint256"
        }
      ],
      "name": "changePublicPrice",
      "outputs": [],
      "stateMutability": "nonpayable",
      "type": "function"
    },
    {
      "inputs": [],
      "name": "currentSupply",
      "outputs": [
        {
          "internalType": "uint256",
          "name": "",
          "type": "uint256"
        }
      ],
      "stateMutability": "view",
      "type": "function"
    },
    {
      "inputs": [
        {
          "internalType": "uint256",
          "name": "tokenId",
          "type": "uint256"
        }
      ],
      "name": "getApproved",
      "outputs": [
        {
          "internalType": "address",
          "name": "",
          "type": "address"
        }
      ],
      "stateMutability": "view",
      "type": "function"
    },
    {
      "inputs": [
        {
          "internalType": "uint256",
          "name": "_increaseBy",
          "type": "uint256"
        }
      ],
      "name": "increaseSupply",
      "outputs": [],
      "stateMutability": "nonpayable",
      "type": "function"
    },
    {
      "inputs": [
        {
          "internalType": "address",
          "name": "",
          "type": "address"
        }
      ],
      "name": "investorMintCount",
      "outputs": [
        {
          "internalType": "uint256",
          "name": "",
          "type": "uint256"
        }
      ],
      "stateMutability": "view",
      "type": "function"
    },
    {
      "inputs": [
        {
          "internalType": "address",
          "name": "owner",
          "type": "address"
        },
        {
          "internalType": "address",
          "name": "operator",
          "type": "address"
        }
      ],
      "name": "isApprovedForAll",
      "outputs": [
        {
          "internalType": "bool",
          "name": "",
          "type": "bool"
        }
      ],
      "stateMutability": "view",
      "type": "function"
    },
    {
      "inputs": [],
      "name": "merkleRoot",
      "outputs": [
        {
          "internalType": "bytes32",
          "name": "",
          "type": "bytes32"
        }
      ],
      "stateMutability": "view",
      "type": "function"
    },
    {
      "inputs": [],
      "name": "name",
      "outputs": [
        {
          "internalType": "string",
          "name": "",
          "type": "string"
        }
      ],
      "stateMutability": "view",
      "type": "function"
    },
    {
      "inputs": [],
      "name": "owner",
      "outputs": [
        {
          "internalType": "address",
          "name": "",
          "type": "address"
        }
      ],
      "stateMutability": "view",
      "type": "function"
    },
    {
      "inputs": [
        {
          "internalType": "uint256",
          "name": "tokenId",
          "type": "uint256"
        }
      ],
      "name": "ownerOf",
      "outputs": [
        {
          "internalType": "address",
          "name": "",
          "type": "address"
        }
      ],
      "stateMutability": "view",
      "type": "function"
    },
    {
      "inputs": [
        {
          "internalType": "bytes32[]",
          "name": "_proof",
          "type": "bytes32[]"
        },
        {
          "internalType": "uint256",
          "name": "_allowedCount",
          "type": "uint256"
        },
        {
          "internalType": "uint256",
          "name": "_count",
          "type": "uint256"
        }
      ],
      "name": "presaleMint",
      "outputs": [],
      "stateMutability": "payable",
      "type": "function"
    },
    {
      "inputs": [],
      "name": "presalePrice",
      "outputs": [
        {
          "internalType": "uint256",
          "name": "",
          "type": "uint256"
        }
      ],
      "stateMutability": "view",
      "type": "function"
    },
    {
      "inputs": [
        {
          "internalType": "uint256",
          "name": "_count",
          "type": "uint256"
        }
      ],
      "name": "publicMint",
      "outputs": [],
      "stateMutability": "payable",
      "type": "function"
    },
    {
      "inputs": [],
      "name": "publicPrice",
      "outputs": [
        {
          "internalType": "uint256",
          "name": "",
          "type": "uint256"
        }
      ],
      "stateMutability": "view",
      "type": "function"
    },
    {
      "inputs": [],
      "name": "renounceOwnership",
      "outputs": [],
      "stateMutability": "nonpayable",
      "type": "function"
    },
    {
      "inputs": [
        {
          "internalType": "uint256",
          "name": "_count",
          "type": "uint256"
        }
      ],
      "name": "reserveEthernalGates",
      "outputs": [],
      "stateMutability": "nonpayable",
      "type": "function"
    },
    {
      "inputs": [
        {
          "internalType": "address",
          "name": "from",
          "type": "address"
        },
        {
          "internalType": "address",
          "name": "to",
          "type": "address"
        },
        {
          "internalType": "uint256",
          "name": "tokenId",
          "type": "uint256"
        }
      ],
      "name": "safeTransferFrom",
      "outputs": [],
      "stateMutability": "nonpayable",
      "type": "function"
    },
    {
      "inputs": [
        {
          "internalType": "address",
          "name": "from",
          "type": "address"
        },
        {
          "internalType": "address",
          "name": "to",
          "type": "address"
        },
        {
          "internalType": "uint256",
          "name": "tokenId",
          "type": "uint256"
        },
        {
          "internalType": "bytes",
          "name": "_data",
          "type": "bytes"
        }
      ],
      "name": "safeTransferFrom",
      "outputs": [],
      "stateMutability": "nonpayable",
      "type": "function"
    },
    {
      "inputs": [],
      "name": "saleStatus",
      "outputs": [
        {
          "internalType": "enum EthernalGates.SALE_STATUS",
          "name": "",
          "type": "uint8"
        }
      ],
      "stateMutability": "view",
      "type": "function"
    },
    {
      "inputs": [
        {
          "internalType": "address",
          "name": "operator",
          "type": "address"
        },
        {
          "internalType": "bool",
          "name": "approved",
          "type": "bool"
        }
      ],
      "name": "setApprovalForAll",
      "outputs": [],
      "stateMutability": "nonpayable",
      "type": "function"
    },
    {
      "inputs": [
        {
          "internalType": "string",
          "name": "baseURI",
          "type": "string"
        }
      ],
      "name": "setBaseURI",
      "outputs": [],
      "stateMutability": "nonpayable",
      "type": "function"
    },
    {
      "inputs": [
        {
          "internalType": "bytes32",
          "name": "_merkleRoot",
          "type": "bytes32"
        }
      ],
      "name": "setMerkleRoot",
      "outputs": [],
      "stateMutability": "nonpayable",
      "type": "function"
    },
    {
      "inputs": [
        {
          "internalType": "enum EthernalGates.SALE_STATUS",
          "name": "_status",
          "type": "uint8"
        }
      ],
      "name": "setSaleStatus",
      "outputs": [],
      "stateMutability": "nonpayable",
      "type": "function"
    },
    {
      "inputs": [
        {
          "internalType": "bytes4",
          "name": "interfaceId",
          "type": "bytes4"
        }
      ],
      "name": "supportsInterface",
      "outputs": [
        {
          "internalType": "bool",
          "name": "",
          "type": "bool"
        }
      ],
      "stateMutability": "view",
      "type": "function"
    },
    {
      "inputs": [],
      "name": "symbol",
      "outputs": [
        {
          "internalType": "string",
          "name": "",
          "type": "string"
        }
      ],
      "stateMutability": "view",
      "type": "function"
    },
    {
      "inputs": [
        {
          "internalType": "uint256",
          "name": "tokenId",
          "type": "uint256"
        }
      ],
      "name": "tokenURI",
      "outputs": [
        {
          "internalType": "string",
          "name": "",
          "type": "string"
        }
      ],
      "stateMutability": "view",
      "type": "function"
    },
    {
      "inputs": [],
      "name": "totalSupply",
      "outputs": [
        {
          "internalType": "uint256",
          "name": "",
          "type": "uint256"
        }
      ],
      "stateMutability": "view",
      "type": "function"
    },
    {
      "inputs": [
        {
          "internalType": "address",
          "name": "from",
          "type": "address"
        },
        {
          "internalType": "address",
          "name": "to",
          "type": "address"
        },
        {
          "internalType": "uint256",
          "name": "tokenId",
          "type": "uint256"
        }
      ],
      "name": "transferFrom",
      "outputs": [],
      "stateMutability": "nonpayable",
      "type": "function"
    },
    {
      "inputs": [
        {
          "internalType": "address",
          "name": "newOwner",
          "type": "address"
        }
      ],
      "name": "transferOwnership",
      "outputs": [],
      "stateMutability": "nonpayable",
      "type": "function"
    },
    {
      "inputs": [
        {
          "internalType": "address",
          "name": "",
          "type": "address"
        }
      ],
      "name": "vipMintCount",
      "outputs": [
        {
          "internalType": "uint256",
          "name": "",
          "type": "uint256"
        }
      ],
      "stateMutability": "view",
      "type": "function"
    },
    {
      "inputs": [],
      "name": "withdraw",
      "outputs": [],
      "stateMutability": "nonpayable",
      "type": "function"
    },
    {
      "inputs": [
        {
          "internalType": "address",
          "name": "",
          "type": "address"
        }
      ],
      "name": "wlMintCount",
      "outputs": [
        {
          "internalType": "uint256",
          "name": "",
          "type": "uint256"
        }
      ],
      "stateMutability": "view",
      "type": "function"
    }
  ],
  "bytecode": "0x60806040526107d0600a556706ccd46763f10000600b5567083019dfc17b0000600c553480156200002f57600080fd5b50604051620051b6380380620051b683398181016040528101906200005591906200053c565b6040518060400160405280600e81526020017f45746865726e616c2047617465730000000000000000000000000000000000008152506040518060400160405280600e81526020017f45746865726e616c2047617465730000000000000000000000000000000000008152508160029080519060200190620000d9929190620002ef565b508060039080519060200190620000f2929190620002ef565b50620001036200014360201b60201c565b60008190555050506200012b6200011f6200014c60201b60201c565b6200015460201b60201c565b6200013c816200021a60201b60201c565b5062000675565b60006001905090565b600033905090565b6000600860009054906101000a900473ffffffffffffffffffffffffffffffffffffffff16905081600860006101000a81548173ffffffffffffffffffffffffffffffffffffffff021916908373ffffffffffffffffffffffffffffffffffffffff1602179055508173ffffffffffffffffffffffffffffffffffffffff168173ffffffffffffffffffffffffffffffffffffffff167f8be0079c531659141344cd1fd0a4f28419497f9722a3daafe3b4186f6b6457e060405160405180910390a35050565b6200022a6200014c60201b60201c565b73ffffffffffffffffffffffffffffffffffffffff1662000250620002c560201b60201c565b73ffffffffffffffffffffffffffffffffffffffff1614620002a9576040517f08c379a0000000000000000000000000000000000000000000000000000000008152600401620002a090620005ee565b60405180910390fd5b8060099080519060200190620002c1929190620002ef565b5050565b6000600860009054906101000a900473ffffffffffffffffffffffffffffffffffffffff16905090565b828054620002fd906200063f565b90600052602060002090601f0160209004810192826200032157600085556200036d565b82601f106200033c57805160ff19168380011785556200036d565b828001600101855582156200036d579182015b828111156200036c5782518255916020019190600101906200034f565b5b5090506200037c919062000380565b5090565b5b808211156200039b57600081600090555060010162000381565b5090565b6000604051905090565b600080fd5b600080fd5b600080fd5b600080fd5b6000601f19601f8301169050919050565b7f4e487b7100000000000000000000000000000000000000000000000000000000600052604160045260246000fd5b6200040882620003bd565b810181811067ffffffffffffffff821117156200042a5762000429620003ce565b5b80604052505050565b60006200043f6200039f565b90506200044d8282620003fd565b919050565b600067ffffffffffffffff82111562000470576200046f620003ce565b5b6200047b82620003bd565b9050602081019050919050565b60005b83811015620004a85780820151818401526020810190506200048b565b83811115620004b8576000848401525b50505050565b6000620004d5620004cf8462000452565b62000433565b905082815260208101848484011115620004f457620004f3620003b8565b5b6200050184828562000488565b509392505050565b600082601f830112620005215762000520620003b3565b5b815162000533848260208601620004be565b91505092915050565b600060208284031215620005555762000554620003a9565b5b600082015167ffffffffffffffff811115620005765762000575620003ae565b5b620005848482850162000509565b91505092915050565b600082825260208201905092915050565b7f4f776e61626c653a2063616c6c6572206973206e6f7420746865206f776e6572600082015250565b6000620005d66020836200058d565b9150620005e3826200059e565b602082019050919050565b600060208201905081810360008301526200060981620005c7565b9050919050565b7f4e487b7100000000000000000000000000000000000000000000000000000000600052602260045260246000fd5b600060028204905060018216806200065857607f821691505b602082108114156200066f576200066e62000610565b5b50919050565b614b3180620006856000396000f3fe6080604052600436106102195760003560e01c80636352211e116101235780639d7e8d5f116100ab578063c204642c1161006f578063c204642c1461079e578063c87b56dd146107c7578063e985e9c514610804578063f2fde38b14610841578063f9020e331461086a57610219565b80639d7e8d5f146106cf578063a22cb465146106f8578063a945bf8014610721578063b88d4fde1461074c578063b921e1631461077557610219565b8063771282f6116100f2578063771282f6146105fc5780637cb64759146106275780638606d938146106505780638da5cb5b1461067957806395d89b41146106a457610219565b80636352211e1461052e57806370a082311461056b57806370cad3aa146105a8578063715018a6146105e557610219565b80632eb4a7ab116101a657806342842e0e1161017557806342842e0e1461044d5780634891ad88146104765780634aa8a13b1461049f57806355f804b3146104c857806356c3e7f8146104f157610219565b80632eb4a7ab146103c457806332cb6b0c146103ef5780633c18c3da1461041a5780633ccfd60b1461043657610219565b8063095ea7b3116101ed578063095ea7b3146102ee57806311dceda71461031757806318160ddd1461035457806323b872dd1461037f5780632db11544146103a857610219565b80620e7fa81461021e57806301ffc9a71461024957806306fdde0314610286578063081812fc146102b1575b600080fd5b34801561022a57600080fd5b50610233610895565b6040516102409190613406565b60405180910390f35b34801561025557600080fd5b50610270600480360381019061026b919061348d565b61089b565b60405161027d91906134d5565b60405180910390f35b34801561029257600080fd5b5061029b61097d565b6040516102a89190613589565b60405180910390f35b3480156102bd57600080fd5b506102d860048036038101906102d391906135d7565b610a0f565b6040516102e59190613645565b60405180910390f35b3480156102fa57600080fd5b506103156004803603810190610310919061368c565b610a8b565b005b34801561032357600080fd5b5061033e600480360381019061033991906136cc565b610b96565b60405161034b9190613406565b60405180910390f35b34801561036057600080fd5b50610369610bae565b6040516103769190613406565b60405180910390f35b34801561038b57600080fd5b506103a660048036038101906103a191906136f9565b610bc5565b005b6103c260048036038101906103bd91906135d7565b610bd5565b005b3480156103d057600080fd5b506103d9610d00565b6040516103e69190613765565b60405180910390f35b3480156103fb57600080fd5b50610404610d06565b6040516104119190613406565b60405180910390f35b610434600480360381019061042f91906137e5565b610d0c565b005b34801561044257600080fd5b5061044b6112e8565b005b34801561045957600080fd5b50610474600480360381019061046f91906136f9565b611413565b005b34801561048257600080fd5b5061049d6004803603810190610498919061387e565b611433565b005b3480156104ab57600080fd5b506104c660048036038101906104c191906135d7565b6114dc565b005b3480156104d457600080fd5b506104ef60048036038101906104ea91906139db565b6115be565b005b3480156104fd57600080fd5b50610518600480360381019061051391906136cc565b611654565b6040516105259190613406565b60405180910390f35b34801561053a57600080fd5b50610555600480360381019061055091906135d7565b61166c565b6040516105629190613645565b60405180910390f35b34801561057757600080fd5b50610592600480360381019061058d91906136cc565b611682565b60405161059f9190613406565b60405180910390f35b3480156105b457600080fd5b506105cf60048036038101906105ca91906136cc565b611752565b6040516105dc9190613406565b60405180910390f35b3480156105f157600080fd5b506105fa61176a565b005b34801561060857600080fd5b506106116117f2565b60405161061e9190613406565b60405180910390f35b34801561063357600080fd5b5061064e60048036038101906106499190613a50565b6117f8565b005b34801561065c57600080fd5b50610677600480360381019061067291906135d7565b61187e565b005b34801561068557600080fd5b5061068e611904565b60405161069b9190613645565b60405180910390f35b3480156106b057600080fd5b506106b961192e565b6040516106c69190613589565b60405180910390f35b3480156106db57600080fd5b506106f660048036038101906106f191906135d7565b6119c0565b005b34801561070457600080fd5b5061071f600480360381019061071a9190613aa9565b611a46565b005b34801561072d57600080fd5b50610736611bbe565b6040516107439190613406565b60405180910390f35b34801561075857600080fd5b50610773600480360381019061076e9190613b8a565b611bc4565b005b34801561078157600080fd5b5061079c600480360381019061079791906135d7565b611c40565b005b3480156107aa57600080fd5b506107c560048036038101906107c09190613cd0565b611d2a565b005b3480156107d357600080fd5b506107ee60048036038101906107e991906135d7565b611f21565b6040516107fb9190613589565b60405180910390f35b34801561081057600080fd5b5061082b60048036038101906108269190613d2c565b611fc0565b60405161083891906134d5565b60405180910390f35b34801561084d57600080fd5b50610868600480360381019061086391906136cc565b612054565b005b34801561087657600080fd5b5061087f61214c565b60405161088c9190613de3565b60405180910390f35b600b5481565b60007f80ac58cd000000000000000000000000000000000000000000000000000000007bffffffffffffffffffffffffffffffffffffffffffffffffffffffff1916827bffffffffffffffffffffffffffffffffffffffffffffffffffffffff1916148061096657507f5b5e139f000000000000000000000000000000000000000000000000000000007bffffffffffffffffffffffffffffffffffffffffffffffffffffffff1916827bffffffffffffffffffffffffffffffffffffffffffffffffffffffff1916145b8061097657506109758261215f565b5b9050919050565b60606002805461098c90613e2d565b80601f01602080910402602001604051908101604052809291908181526020018280546109b890613e2d565b8015610a055780601f106109da57610100808354040283529160200191610a05565b820191906000526020600020905b8154815290600101906020018083116109e857829003601f168201915b5050505050905090565b6000610a1a826121c9565b610a50576040517fcf4700e400000000000000000000000000000000000000000000000000000000815260040160405180910390fd5b6006600083815260200190815260200160002060009054906101000a900473ffffffffffffffffffffffffffffffffffffffff169050919050565b6000610a968261166c565b90508073ffffffffffffffffffffffffffffffffffffffff168373ffffffffffffffffffffffffffffffffffffffff161415610afe576040517f943f7b8c00000000000000000000000000000000000000000000000000000000815260040160405180910390fd5b8073ffffffffffffffffffffffffffffffffffffffff16610b1d612217565b73ffffffffffffffffffffffffffffffffffffffff1614158015610b4f5750610b4d81610b48612217565b611fc0565b155b15610b86576040517fcfb3b94200000000000000000000000000000000000000000000000000000000815260040160405180910390fd5b610b9183838361221f565b505050565b600f6020528060005260406000206000915090505481565b6000610bb86122d1565b6001546000540303905090565b610bd08383836122da565b505050565b80600a5481610be2610bae565b610bec9190613e8e565b1115610c2d576040517f08c379a0000000000000000000000000000000000000000000000000000000008152600401610c2490613f56565b60405180910390fd5b600480811115610c4057610c3f613d6c565b5b600860149054906101000a900460ff166004811115610c6257610c61613d6c565b5b14610ca2576040517f08c379a0000000000000000000000000000000000000000000000000000000008152600401610c9990613fc2565b60405180910390fd5b81600c54610cb09190613fe2565b341015610cf2576040517f08c379a0000000000000000000000000000000000000000000000000000000008152600401610ce9906140ae565b60405180910390fd5b610cfc3383612790565b5050565b600d5481565b61177081565b80600a5481610d19610bae565b610d239190613e8e565b1115610d64576040517f08c379a0000000000000000000000000000000000000000000000000000000008152600401610d5b90613f56565b60405180910390fd5b6000801b600d541415610dac576040517f08c379a0000000000000000000000000000000000000000000000000000000008152600401610da390614140565b60405180910390fd5b60006004811115610dc057610dbf613d6c565b5b600860149054906101000a900460ff166004811115610de257610de1613d6c565b5b14158015610e235750600480811115610dfe57610dfd613d6c565b5b600860149054906101000a900460ff166004811115610e2057610e1f613d6c565b5b14155b610e62576040517f08c379a0000000000000000000000000000000000000000000000000000000008152600401610e59906141ac565b60405180910390fd5b610ed8858580806020026020016040519081016040528093929190818152602001838360200280828437600081840152601f19601f82011690508083019250505050505050600d543386604051602001610ebd929190614235565b6040516020818303038152906040528051906020012061279e565b610f17576040517f08c379a0000000000000000000000000000000000000000000000000000000008152600401610f0e906142d3565b60405180910390fd5b82821115610f5a576040517f08c379a0000000000000000000000000000000000000000000000000000000008152600401610f5190614365565b60405180910390fd5b81600b54610f689190613fe2565b341015610faa576040517f08c379a0000000000000000000000000000000000000000000000000000000008152600401610fa1906140ae565b60405180910390fd5b60016004811115610fbe57610fbd613d6c565b5b600860149054906101000a900460ff166004811115610fe057610fdf613d6c565b5b14156110ce5781600e60003373ffffffffffffffffffffffffffffffffffffffff1673ffffffffffffffffffffffffffffffffffffffff168152602001908152602001600020546110319190613e8e565b831015611073576040517f08c379a000000000000000000000000000000000000000000000000000000000815260040161106a9061441d565b60405180910390fd5b81600e60003373ffffffffffffffffffffffffffffffffffffffff1673ffffffffffffffffffffffffffffffffffffffff16815260200190815260200160002060008282546110c29190613e8e565b925050819055506112d7565b600260048111156110e2576110e1613d6c565b5b600860149054906101000a900460ff16600481111561110457611103613d6c565b5b14156111f25781600f60003373ffffffffffffffffffffffffffffffffffffffff1673ffffffffffffffffffffffffffffffffffffffff168152602001908152602001600020546111559190613e8e565b831015611197576040517f08c379a000000000000000000000000000000000000000000000000000000000815260040161118e906144af565b60405180910390fd5b81600f60003373ffffffffffffffffffffffffffffffffffffffff1673ffffffffffffffffffffffffffffffffffffffff16815260200190815260200160002060008282546111e69190613e8e565b925050819055506112d6565b81601060003373ffffffffffffffffffffffffffffffffffffffff1673ffffffffffffffffffffffffffffffffffffffff1681526020019081526020016000205461123d9190613e8e565b83101561127f576040517f08c379a000000000000000000000000000000000000000000000000000000000815260040161127690614541565b60405180910390fd5b81601060003373ffffffffffffffffffffffffffffffffffffffff1673ffffffffffffffffffffffffffffffffffffffff16815260200190815260200160002060008282546112ce9190613e8e565b925050819055505b5b6112e13383612790565b5050505050565b6112f0612217565b73ffffffffffffffffffffffffffffffffffffffff1661130e611904565b73ffffffffffffffffffffffffffffffffffffffff1614611364576040517f08c379a000000000000000000000000000000000000000000000000000000000815260040161135b906145ad565b60405180910390fd5b60003373ffffffffffffffffffffffffffffffffffffffff164760405161138a906145fe565b60006040518083038185875af1925050503d80600081146113c7576040519150601f19603f3d011682016040523d82523d6000602084013e6113cc565b606091505b5050905080611410576040517f08c379a00000000000000000000000000000000000000000000000000000000081526004016114079061465f565b60405180910390fd5b50565b61142e83838360405180602001604052806000815250611bc4565b505050565b61143b612217565b73ffffffffffffffffffffffffffffffffffffffff16611459611904565b73ffffffffffffffffffffffffffffffffffffffff16146114af576040517f08c379a00000000000000000000000000000000000000000000000000000000081526004016114a6906145ad565b60405180910390fd5b80600860146101000a81548160ff021916908360048111156114d4576114d3613d6c565b5b021790555050565b6114e4612217565b73ffffffffffffffffffffffffffffffffffffffff16611502611904565b73ffffffffffffffffffffffffffffffffffffffff1614611558576040517f08c379a000000000000000000000000000000000000000000000000000000000815260040161154f906145ad565b60405180910390fd5b80600a5481611565610bae565b61156f9190613e8e565b11156115b0576040517f08c379a00000000000000000000000000000000000000000000000000000000081526004016115a790613f56565b60405180910390fd5b6115ba3383612790565b5050565b6115c6612217565b73ffffffffffffffffffffffffffffffffffffffff166115e4611904565b73ffffffffffffffffffffffffffffffffffffffff161461163a576040517f08c379a0000000000000000000000000000000000000000000000000000000008152600401611631906145ad565b60405180910390fd5b8060099080519060200190611650929190613307565b5050565b600e6020528060005260406000206000915090505481565b6000611677826127b5565b600001519050919050565b60008073ffffffffffffffffffffffffffffffffffffffff168273ffffffffffffffffffffffffffffffffffffffff1614156116ea576040517f8f4eb60400000000000000000000000000000000000000000000000000000000815260040160405180910390fd5b600560008373ffffffffffffffffffffffffffffffffffffffff1673ffffffffffffffffffffffffffffffffffffffff16815260200190815260200160002060000160009054906101000a900467ffffffffffffffff1667ffffffffffffffff169050919050565b60106020528060005260406000206000915090505481565b611772612217565b73ffffffffffffffffffffffffffffffffffffffff16611790611904565b73ffffffffffffffffffffffffffffffffffffffff16146117e6576040517f08c379a00000000000000000000000000000000000000000000000000000000081526004016117dd906145ad565b60405180910390fd5b6117f06000612a44565b565b600a5481565b611800612217565b73ffffffffffffffffffffffffffffffffffffffff1661181e611904565b73ffffffffffffffffffffffffffffffffffffffff1614611874576040517f08c379a000000000000000000000000000000000000000000000000000000000815260040161186b906145ad565b60405180910390fd5b80600d8190555050565b611886612217565b73ffffffffffffffffffffffffffffffffffffffff166118a4611904565b73ffffffffffffffffffffffffffffffffffffffff16146118fa576040517f08c379a00000000000000000000000000000000000000000000000000000000081526004016118f1906145ad565b60405180910390fd5b80600b8190555050565b6000600860009054906101000a900473ffffffffffffffffffffffffffffffffffffffff16905090565b60606003805461193d90613e2d565b80601f016020809104026020016040519081016040528092919081815260200182805461196990613e2d565b80156119b65780601f1061198b576101008083540402835291602001916119b6565b820191906000526020600020905b81548152906001019060200180831161199957829003601f168201915b5050505050905090565b6119c8612217565b73ffffffffffffffffffffffffffffffffffffffff166119e6611904565b73ffffffffffffffffffffffffffffffffffffffff1614611a3c576040517f08c379a0000000000000000000000000000000000000000000000000000000008152600401611a33906145ad565b60405180910390fd5b80600c8190555050565b611a4e612217565b73ffffffffffffffffffffffffffffffffffffffff168273ffffffffffffffffffffffffffffffffffffffff161415611ab3576040517fb06307db00000000000000000000000000000000000000000000000000000000815260040160405180910390fd5b8060076000611ac0612217565b73ffffffffffffffffffffffffffffffffffffffff1673ffffffffffffffffffffffffffffffffffffffff16815260200190815260200160002060008473ffffffffffffffffffffffffffffffffffffffff1673ffffffffffffffffffffffffffffffffffffffff16815260200190815260200160002060006101000a81548160ff0219169083151502179055508173ffffffffffffffffffffffffffffffffffffffff16611b6d612217565b73ffffffffffffffffffffffffffffffffffffffff167f17307eab39ab6107e8899845ad3d59bd9653f200f220920489ca2b5937696c3183604051611bb291906134d5565b60405180910390a35050565b600c5481565b611bcf8484846122da565b611bee8373ffffffffffffffffffffffffffffffffffffffff16612b0a565b8015611c035750611c0184848484612b2d565b155b15611c3a576040517fd1a57ed600000000000000000000000000000000000000000000000000000000815260040160405180910390fd5b50505050565b611c48612217565b73ffffffffffffffffffffffffffffffffffffffff16611c66611904565b73ffffffffffffffffffffffffffffffffffffffff1614611cbc576040517f08c379a0000000000000000000000000000000000000000000000000000000008152600401611cb3906145ad565b60405180910390fd5b61177081600a54611ccd9190613e8e565b1115611d0e576040517f08c379a0000000000000000000000000000000000000000000000000000000008152600401611d05906146f1565b60405180910390fd5b80600a6000828254611d209190613e8e565b9250508190555050565b611d32612217565b73ffffffffffffffffffffffffffffffffffffffff16611d50611904565b73ffffffffffffffffffffffffffffffffffffffff1614611da6576040517f08c379a0000000000000000000000000000000000000000000000000000000008152600401611d9d906145ad565b60405180910390fd5b815181611db39190613fe2565b600a5481611dbf610bae565b611dc99190613e8e565b1115611e0a576040517f08c379a0000000000000000000000000000000000000000000000000000000008152600401611e0190613f56565b60405180910390fd5b6000835111611e4e576040517f08c379a0000000000000000000000000000000000000000000000000000000008152600401611e459061475d565b60405180910390fd5b60005b8351811015611f1b57600073ffffffffffffffffffffffffffffffffffffffff16848281518110611e8557611e8461477d565b5b602002602001015173ffffffffffffffffffffffffffffffffffffffff161415611ee4576040517f08c379a0000000000000000000000000000000000000000000000000000000008152600401611edb906147f8565b60405180910390fd5b611f08848281518110611efa57611ef961477d565b5b602002602001015184612790565b8080611f1390614818565b915050611e51565b50505050565b6060611f2c826121c9565b611f62576040517fa14c4b5000000000000000000000000000000000000000000000000000000000815260040160405180910390fd5b6000611f6c612c7e565b9050600081511415611f8d5760405180602001604052806000815250611fb8565b80611f9784612d10565b604051602001611fa892919061489d565b6040516020818303038152906040525b915050919050565b6000600760008473ffffffffffffffffffffffffffffffffffffffff1673ffffffffffffffffffffffffffffffffffffffff16815260200190815260200160002060008373ffffffffffffffffffffffffffffffffffffffff1673ffffffffffffffffffffffffffffffffffffffff16815260200190815260200160002060009054906101000a900460ff16905092915050565b61205c612217565b73ffffffffffffffffffffffffffffffffffffffff1661207a611904565b73ffffffffffffffffffffffffffffffffffffffff16146120d0576040517f08c379a00000000000000000000000000000000000000000000000000000000081526004016120c7906145ad565b60405180910390fd5b600073ffffffffffffffffffffffffffffffffffffffff168173ffffffffffffffffffffffffffffffffffffffff161415612140576040517f08c379a000000000000000000000000000000000000000000000000000000000815260040161213790614933565b60405180910390fd5b61214981612a44565b50565b600860149054906101000a900460ff1681565b60007f01ffc9a7000000000000000000000000000000000000000000000000000000007bffffffffffffffffffffffffffffffffffffffffffffffffffffffff1916827bffffffffffffffffffffffffffffffffffffffffffffffffffffffff1916149050919050565b6000816121d46122d1565b111580156121e3575060005482105b8015612210575060046000838152602001908152602001600020600001601c9054906101000a900460ff16155b9050919050565b600033905090565b826006600084815260200190815260200160002060006101000a81548173ffffffffffffffffffffffffffffffffffffffff021916908373ffffffffffffffffffffffffffffffffffffffff160217905550818373ffffffffffffffffffffffffffffffffffffffff168273ffffffffffffffffffffffffffffffffffffffff167f8c5be1e5ebec7d5bd14f71427d1e84f3dd0314c0f7b2291e5b200ac8c7c3b92560405160405180910390a4505050565b60006001905090565b60006122e5826127b5565b90508373ffffffffffffffffffffffffffffffffffffffff16816000015173ffffffffffffffffffffffffffffffffffffffff1614612350576040517fa114810000000000000000000000000000000000000000000000000000000000815260040160405180910390fd5b60008473ffffffffffffffffffffffffffffffffffffffff16612371612217565b73ffffffffffffffffffffffffffffffffffffffff1614806123a0575061239f8561239a612217565b611fc0565b5b806123e557506123ae612217565b73ffffffffffffffffffffffffffffffffffffffff166123cd84610a0f565b73ffffffffffffffffffffffffffffffffffffffff16145b90508061241e576040517f59c896be00000000000000000000000000000000000000000000000000000000815260040160405180910390fd5b600073ffffffffffffffffffffffffffffffffffffffff168473ffffffffffffffffffffffffffffffffffffffff161415612485576040517fea553b3400000000000000000000000000000000000000000000000000000000815260040160405180910390fd5b6124928585856001612e71565b61249e6000848761221f565b6001600560008773ffffffffffffffffffffffffffffffffffffffff1673ffffffffffffffffffffffffffffffffffffffff16815260200190815260200160002060000160008282829054906101000a900467ffffffffffffffff160392506101000a81548167ffffffffffffffff021916908367ffffffffffffffff1602179055506001600560008673ffffffffffffffffffffffffffffffffffffffff1673ffffffffffffffffffffffffffffffffffffffff16815260200190815260200160002060000160008282829054906101000a900467ffffffffffffffff160192506101000a81548167ffffffffffffffff021916908367ffffffffffffffff1602179055506000600460008581526020019081526020016000209050848160000160006101000a81548173ffffffffffffffffffffffffffffffffffffffff021916908373ffffffffffffffffffffffffffffffffffffffff160217905550428160000160146101000a81548167ffffffffffffffff021916908367ffffffffffffffff16021790555060006001850190506000600460008381526020019081526020016000209050600073ffffffffffffffffffffffffffffffffffffffff168160000160009054906101000a900473ffffffffffffffffffffffffffffffffffffffff1673ffffffffffffffffffffffffffffffffffffffff16141561271e57600054821461271d57878160000160006101000a81548173ffffffffffffffffffffffffffffffffffffffff021916908373ffffffffffffffffffffffffffffffffffffffff16021790555084602001518160000160146101000a81548167ffffffffffffffff021916908367ffffffffffffffff1602179055505b5b505050828473ffffffffffffffffffffffffffffffffffffffff168673ffffffffffffffffffffffffffffffffffffffff167fddf252ad1be2c89b69c2b068fc378daa952ba7f163c4a11628f55a4df523b3ef60405160405180910390a46127898585856001612e77565b5050505050565b61279a8282612e7d565b5050565b6000826127ab8584612e9b565b1490509392505050565b6127bd61338d565b6000829050806127cb6122d1565b111580156127da575060005481105b15612a0d576000600460008381526020019081526020016000206040518060600160405290816000820160009054906101000a900473ffffffffffffffffffffffffffffffffffffffff1673ffffffffffffffffffffffffffffffffffffffff1673ffffffffffffffffffffffffffffffffffffffff1681526020016000820160149054906101000a900467ffffffffffffffff1667ffffffffffffffff1667ffffffffffffffff16815260200160008201601c9054906101000a900460ff16151515158152505090508060400151612a0b57600073ffffffffffffffffffffffffffffffffffffffff16816000015173ffffffffffffffffffffffffffffffffffffffff16146128ef578092505050612a3f565b5b600115612a0a57818060019003925050600460008381526020019081526020016000206040518060600160405290816000820160009054906101000a900473ffffffffffffffffffffffffffffffffffffffff1673ffffffffffffffffffffffffffffffffffffffff1673ffffffffffffffffffffffffffffffffffffffff1681526020016000820160149054906101000a900467ffffffffffffffff1667ffffffffffffffff1667ffffffffffffffff16815260200160008201601c9054906101000a900460ff1615151515815250509050600073ffffffffffffffffffffffffffffffffffffffff16816000015173ffffffffffffffffffffffffffffffffffffffff1614612a05578092505050612a3f565b6128f0565b5b505b6040517fdf2d9b4200000000000000000000000000000000000000000000000000000000815260040160405180910390fd5b919050565b6000600860009054906101000a900473ffffffffffffffffffffffffffffffffffffffff16905081600860006101000a81548173ffffffffffffffffffffffffffffffffffffffff021916908373ffffffffffffffffffffffffffffffffffffffff1602179055508173ffffffffffffffffffffffffffffffffffffffff168173ffffffffffffffffffffffffffffffffffffffff167f8be0079c531659141344cd1fd0a4f28419497f9722a3daafe3b4186f6b6457e060405160405180910390a35050565b6000808273ffffffffffffffffffffffffffffffffffffffff163b119050919050565b60008373ffffffffffffffffffffffffffffffffffffffff1663150b7a02612b53612217565b8786866040518563ffffffff1660e01b8152600401612b7594939291906149a8565b6020604051808303816000875af1925050508015612bb157506040513d601f19601f82011682018060405250810190612bae9190614a09565b60015b612c2b573d8060008114612be1576040519150601f19603f3d011682016040523d82523d6000602084013e612be6565b606091505b50600081511415612c23576040517fd1a57ed600000000000000000000000000000000000000000000000000000000815260040160405180910390fd5b805181602001fd5b63150b7a0260e01b7bffffffffffffffffffffffffffffffffffffffffffffffffffffffff1916817bffffffffffffffffffffffffffffffffffffffffffffffffffffffff191614915050949350505050565b606060098054612c8d90613e2d565b80601f0160208091040260200160405190810160405280929190818152602001828054612cb990613e2d565b8015612d065780601f10612cdb57610100808354040283529160200191612d06565b820191906000526020600020905b815481529060010190602001808311612ce957829003601f168201915b5050505050905090565b60606000821415612d58576040518060400160405280600181526020017f30000000000000000000000000000000000000000000000000000000000000008152509050612e6c565b600082905060005b60008214612d8a578080612d7390614818565b915050600a82612d839190614a65565b9150612d60565b60008167ffffffffffffffff811115612da657612da56138b0565b5b6040519080825280601f01601f191660200182016040528015612dd85781602001600182028036833780820191505090505b5090505b60008514612e6557600182612df19190614a96565b9150600a85612e009190614aca565b6030612e0c9190613e8e565b60f81b818381518110612e2257612e2161477d565b5b60200101907effffffffffffffffffffffffffffffffffffffffffffffffffffffffffffff1916908160001a905350600a85612e5e9190614a65565b9450612ddc565b8093505050505b919050565b50505050565b50505050565b612e97828260405180602001604052806000815250612f10565b5050565b60008082905060005b8451811015612f05576000858281518110612ec257612ec161477d565b5b60200260200101519050808311612ee457612edd8382612f22565b9250612ef1565b612eee8184612f22565b92505b508080612efd90614818565b915050612ea4565b508091505092915050565b612f1d8383836001612f39565b505050565b600082600052816020526040600020905092915050565b600080549050600073ffffffffffffffffffffffffffffffffffffffff168573ffffffffffffffffffffffffffffffffffffffff161415612fa6576040517f2e07630000000000000000000000000000000000000000000000000000000000815260040160405180910390fd5b6000841415612fe1576040517fb562e8dd00000000000000000000000000000000000000000000000000000000815260040160405180910390fd5b612fee6000868387612e71565b83600560008773ffffffffffffffffffffffffffffffffffffffff1673ffffffffffffffffffffffffffffffffffffffff16815260200190815260200160002060000160008282829054906101000a900467ffffffffffffffff160192506101000a81548167ffffffffffffffff021916908367ffffffffffffffff16021790555083600560008773ffffffffffffffffffffffffffffffffffffffff1673ffffffffffffffffffffffffffffffffffffffff16815260200190815260200160002060000160088282829054906101000a900467ffffffffffffffff160192506101000a81548167ffffffffffffffff021916908367ffffffffffffffff160217905550846004600083815260200190815260200160002060000160006101000a81548173ffffffffffffffffffffffffffffffffffffffff021916908373ffffffffffffffffffffffffffffffffffffffff160217905550426004600083815260200190815260200160002060000160146101000a81548167ffffffffffffffff021916908367ffffffffffffffff1602179055506000819050600085820190508380156131b857506131b78773ffffffffffffffffffffffffffffffffffffffff16612b0a565b5b1561327e575b818773ffffffffffffffffffffffffffffffffffffffff16600073ffffffffffffffffffffffffffffffffffffffff167fddf252ad1be2c89b69c2b068fc378daa952ba7f163c4a11628f55a4df523b3ef60405160405180910390a461322d6000888480600101955088612b2d565b613263576040517fd1a57ed600000000000000000000000000000000000000000000000000000000815260040160405180910390fd5b808214156131be57826000541461327957600080fd5b6132ea565b5b818060010192508773ffffffffffffffffffffffffffffffffffffffff16600073ffffffffffffffffffffffffffffffffffffffff167fddf252ad1be2c89b69c2b068fc378daa952ba7f163c4a11628f55a4df523b3ef60405160405180910390a48082141561327f575b8160008190555050506133006000868387612e77565b5050505050565b82805461331390613e2d565b90600052602060002090601f016020900481019282613335576000855561337c565b82601f1061334e57805160ff191683800117855561337c565b8280016001018555821561337c579182015b8281111561337b578251825591602001919060010190613360565b5b50905061338991906133d0565b5090565b6040518060600160405280600073ffffffffffffffffffffffffffffffffffffffff168152602001600067ffffffffffffffff1681526020016000151581525090565b5b808211156133e95760008160009055506001016133d1565b5090565b6000819050919050565b613400816133ed565b82525050565b600060208201905061341b60008301846133f7565b92915050565b6000604051905090565b600080fd5b600080fd5b60007fffffffff0000000000000000000000000000000000000000000000000000000082169050919050565b61346a81613435565b811461347557600080fd5b50565b60008135905061348781613461565b92915050565b6000602082840312156134a3576134a261342b565b5b60006134b184828501613478565b91505092915050565b60008115159050919050565b6134cf816134ba565b82525050565b60006020820190506134ea60008301846134c6565b92915050565b600081519050919050565b600082825260208201905092915050565b60005b8381101561352a57808201518184015260208101905061350f565b83811115613539576000848401525b50505050565b6000601f19601f8301169050919050565b600061355b826134f0565b61356581856134fb565b935061357581856020860161350c565b61357e8161353f565b840191505092915050565b600060208201905081810360008301526135a38184613550565b905092915050565b6135b4816133ed565b81146135bf57600080fd5b50565b6000813590506135d1816135ab565b92915050565b6000602082840312156135ed576135ec61342b565b5b60006135fb848285016135c2565b91505092915050565b600073ffffffffffffffffffffffffffffffffffffffff82169050919050565b600061362f82613604565b9050919050565b61363f81613624565b82525050565b600060208201905061365a6000830184613636565b92915050565b61366981613624565b811461367457600080fd5b50565b60008135905061368681613660565b92915050565b600080604083850312156136a3576136a261342b565b5b60006136b185828601613677565b92505060206136c2858286016135c2565b9150509250929050565b6000602082840312156136e2576136e161342b565b5b60006136f084828501613677565b91505092915050565b6000806000606084860312156137125761371161342b565b5b600061372086828701613677565b935050602061373186828701613677565b9250506040613742868287016135c2565b9150509250925092565b6000819050919050565b61375f8161374c565b82525050565b600060208201905061377a6000830184613756565b92915050565b600080fd5b600080fd5b600080fd5b60008083601f8401126137a5576137a4613780565b5b8235905067ffffffffffffffff8111156137c2576137c1613785565b5b6020830191508360208202830111156137de576137dd61378a565b5b9250929050565b600080600080606085870312156137ff576137fe61342b565b5b600085013567ffffffffffffffff81111561381d5761381c613430565b5b6138298782880161378f565b9450945050602061383c878288016135c2565b925050604061384d878288016135c2565b91505092959194509250565b6005811061386657600080fd5b50565b60008135905061387881613859565b92915050565b6000602082840312156138945761389361342b565b5b60006138a284828501613869565b91505092915050565b600080fd5b7f4e487b7100000000000000000000000000000000000000000000000000000000600052604160045260246000fd5b6138e88261353f565b810181811067ffffffffffffffff82111715613907576139066138b0565b5b80604052505050565b600061391a613421565b905061392682826138df565b919050565b600067ffffffffffffffff821115613946576139456138b0565b5b61394f8261353f565b9050602081019050919050565b82818337600083830152505050565b600061397e6139798461392b565b613910565b90508281526020810184848401111561399a576139996138ab565b5b6139a584828561395c565b509392505050565b600082601f8301126139c2576139c1613780565b5b81356139d284826020860161396b565b91505092915050565b6000602082840312156139f1576139f061342b565b5b600082013567ffffffffffffffff811115613a0f57613a0e613430565b5b613a1b848285016139ad565b91505092915050565b613a2d8161374c565b8114613a3857600080fd5b50565b600081359050613a4a81613a24565b92915050565b600060208284031215613a6657613a6561342b565b5b6000613a7484828501613a3b565b91505092915050565b613a86816134ba565b8114613a9157600080fd5b50565b600081359050613aa381613a7d565b92915050565b60008060408385031215613ac057613abf61342b565b5b6000613ace85828601613677565b9250506020613adf85828601613a94565b9150509250929050565b600067ffffffffffffffff821115613b0457613b036138b0565b5b613b0d8261353f565b9050602081019050919050565b6000613b2d613b2884613ae9565b613910565b905082815260208101848484011115613b4957613b486138ab565b5b613b5484828561395c565b509392505050565b600082601f830112613b7157613b70613780565b5b8135613b81848260208601613b1a565b91505092915050565b60008060008060808587031215613ba457613ba361342b565b5b6000613bb287828801613677565b9450506020613bc387828801613677565b9350506040613bd4878288016135c2565b925050606085013567ffffffffffffffff811115613bf557613bf4613430565b5b613c0187828801613b5c565b91505092959194509250565b600067ffffffffffffffff821115613c2857613c276138b0565b5b602082029050602081019050919050565b6000613c4c613c4784613c0d565b613910565b90508083825260208201905060208402830185811115613c6f57613c6e61378a565b5b835b81811015613c985780613c848882613677565b845260208401935050602081019050613c71565b5050509392505050565b600082601f830112613cb757613cb6613780565b5b8135613cc7848260208601613c39565b91505092915050565b60008060408385031215613ce757613ce661342b565b5b600083013567ffffffffffffffff811115613d0557613d04613430565b5b613d1185828601613ca2565b9250506020613d22858286016135c2565b9150509250929050565b60008060408385031215613d4357613d4261342b565b5b6000613d5185828601613677565b9250506020613d6285828601613677565b9150509250929050565b7f4e487b7100000000000000000000000000000000000000000000000000000000600052602160045260246000fd5b60058110613dac57613dab613d6c565b5b50565b6000819050613dbd82613d9b565b919050565b6000613dcd82613daf565b9050919050565b613ddd81613dc2565b82525050565b6000602082019050613df86000830184613dd4565b92915050565b7f4e487b7100000000000000000000000000000000000000000000000000000000600052602260045260246000fd5b60006002820490506001821680613e4557607f821691505b60208210811415613e5957613e58613dfe565b5b50919050565b7f4e487b7100000000000000000000000000000000000000000000000000000000600052601160045260246000fd5b6000613e99826133ed565b9150613ea4836133ed565b9250827fffffffffffffffffffffffffffffffffffffffffffffffffffffffffffffffff03821115613ed957613ed8613e5f565b5b828201905092915050565b7f5472616e73616374696f6e2077696c6c20657863656564206d6178696d756d2060008201527f737570706c79206f662045746865726e616c2047617465730000000000000000602082015250565b6000613f406038836134fb565b9150613f4b82613ee4565b604082019050919050565b60006020820190508181036000830152613f6f81613f33565b9050919050565b7f5075626c69632073616c65206973206e6f742073746172746564000000000000600082015250565b6000613fac601a836134fb565b9150613fb782613f76565b602082019050919050565b60006020820190508181036000830152613fdb81613f9f565b9050919050565b6000613fed826133ed565b9150613ff8836133ed565b9250817fffffffffffffffffffffffffffffffffffffffffffffffffffffffffffffffff048311821515161561403157614030613e5f565b5b828202905092915050565b7f496e636f72726563742065746865722073656e7420776974682074686973207460008201527f72616e73616374696f6e00000000000000000000000000000000000000000000602082015250565b6000614098602a836134fb565b91506140a38261403c565b604082019050919050565b600060208201905081810360008301526140c78161408b565b9050919050565b7f4e6f206164647265737320697320656c696769626c6520666f7220707265736160008201527f6c65206d696e74696e6720796574000000000000000000000000000000000000602082015250565b600061412a602e836134fb565b9150614135826140ce565b604082019050919050565b600060208201905081810360008301526141598161411d565b9050919050565b7f50726573616c652073616c65206e6f7420737461727465640000000000000000600082015250565b60006141966018836134fb565b91506141a182614160565b602082019050919050565b600060208201905081810360008301526141c581614189565b9050919050565b60008160601b9050919050565b60006141e4826141cc565b9050919050565b60006141f6826141d9565b9050919050565b61420e61420982613624565b6141eb565b82525050565b6000819050919050565b61422f61422a826133ed565b614214565b82525050565b600061424182856141fd565b601482019150614251828461421e565b6020820191508190509392505050565b7f41646472657373206e6f7420656c696769626c6520666f722070726573616c6560008201527f206d696e74000000000000000000000000000000000000000000000000000000602082015250565b60006142bd6025836134fb565b91506142c882614261565b604082019050919050565b600060208201905081810360008301526142ec816142b0565b9050919050565b7f4d696e7420636f756e74206578636565647320616c6c6f776564206d696e742060008201527f636f756e74000000000000000000000000000000000000000000000000000000602082015250565b600061434f6025836134fb565b915061435a826142f3565b604082019050919050565b6000602082019050818103600083015261437e81614342565b9050919050565b7f5472616e73616374696f6e2077696c6c20657863656564206d6178696d756d2060008201527f4e46547320616c6c6f77656420746f206d696e7420696e20696e766573746f7260208201527f2073616c65000000000000000000000000000000000000000000000000000000604082015250565b60006144076045836134fb565b915061441282614385565b606082019050919050565b60006020820190508181036000830152614436816143fa565b9050919050565b7f5472616e73616374696f6e2077696c6c20657863656564206d6178696d756d2060008201527f4e46547320616c6c6f77656420746f206d696e7420696e207669702073616c65602082015250565b60006144996040836134fb565b91506144a48261443d565b604082019050919050565b600060208201905081810360008301526144c88161448c565b9050919050565b7f5472616e73616374696f6e2077696c6c20657863656564206d6178696d756d2060008201527f4e46547320616c6c6f77656420746f206d696e7420696e2070726573616c6500602082015250565b600061452b603f836134fb565b9150614536826144cf565b604082019050919050565b6000602082019050818103600083015261455a8161451e565b9050919050565b7f4f776e61626c653a2063616c6c6572206973206e6f7420746865206f776e6572600082015250565b60006145976020836134fb565b91506145a282614561565b602082019050919050565b600060208201905081810360008301526145c68161458a565b9050919050565b600081905092915050565b50565b60006145e86000836145cd565b91506145f3826145d8565b600082019050919050565b6000614609826145db565b9150819050919050565b7f5472616e73666572206661696c65642e00000000000000000000000000000000600082015250565b60006146496010836134fb565b915061465482614613565b602082019050919050565b600060208201905081810360008301526146788161463c565b9050919050565b7f43616e6e6f7420696e63726561736520737570706c79206279206d6f7265207460008201527f68616e2036303030000000000000000000000000000000000000000000000000602082015250565b60006146db6028836134fb565b91506146e68261467f565b604082019050919050565b6000602082019050818103600083015261470a816146ce565b9050919050565b7f4e6f206164647265737320666f756e6420666f722061697264726f7000000000600082015250565b6000614747601c836134fb565b915061475282614711565b602082019050919050565b600060208201905081810360008301526147768161473a565b9050919050565b7f4e487b7100000000000000000000000000000000000000000000000000000000600052603260045260246000fd5b7f43616e27742061697264726f7020746f207a65726f2061646472657373000000600082015250565b60006147e2601d836134fb565b91506147ed826147ac565b602082019050919050565b60006020820190508181036000830152614811816147d5565b9050919050565b6000614823826133ed565b91507fffffffffffffffffffffffffffffffffffffffffffffffffffffffffffffffff82141561485657614855613e5f565b5b600182019050919050565b600081905092915050565b6000614877826134f0565b6148818185614861565b935061489181856020860161350c565b80840191505092915050565b60006148a9828561486c565b91506148b5828461486c565b91508190509392505050565b7f4f776e61626c653a206e6577206f776e657220697320746865207a65726f206160008201527f6464726573730000000000000000000000000000000000000000000000000000602082015250565b600061491d6026836134fb565b9150614928826148c1565b604082019050919050565b6000602082019050818103600083015261494c81614910565b9050919050565b600081519050919050565b600082825260208201905092915050565b600061497a82614953565b614984818561495e565b935061499481856020860161350c565b61499d8161353f565b840191505092915050565b60006080820190506149bd6000830187613636565b6149ca6020830186613636565b6149d760408301856133f7565b81810360608301526149e9818461496f565b905095945050505050565b600081519050614a0381613461565b92915050565b600060208284031215614a1f57614a1e61342b565b5b6000614a2d848285016149f4565b91505092915050565b7f4e487b7100000000000000000000000000000000000000000000000000000000600052601260045260246000fd5b6000614a70826133ed565b9150614a7b836133ed565b925082614a8b57614a8a614a36565b5b828204905092915050565b6000614aa1826133ed565b9150614aac836133ed565b925082821015614abf57614abe613e5f565b5b828203905092915050565b6000614ad5826133ed565b9150614ae0836133ed565b925082614af057614aef614a36565b5b82820690509291505056fea264697066735822122050a626a3583b3fb049bffc283db9a5097ceeac135154802cf9f7385e3c8ee4c164736f6c634300080b0033",
  "linkReferences": {},
  "deployedLinkReferences": {}
}