{
  "_format": "hh-sol-artifact-1",
  "contractName": "SmolBirbArb",
  "sourceName": "contracts/SmolBirbArb.sol",
  "abi": [
    {
      "inputs": [
        {
          "internalType": "string",
          "name": "baseURI",
          "type": "string"
        }
      ],
      "stateMutability": "nonpayable",
      "type": "constructor"
    },
    {
      "anonymous": false,
      "inputs": [
        {
          "indexed": true,
          "internalType": "address",
          "name": "owner",
          "type": "address"
        },
        {
          "indexed": true,
          "internalType": "address",
          "name": "approved",
          "type": "address"
        },
        {
          "indexed": true,
          "internalType": "uint256",
          "name": "tokenId",
          "type": "uint256"
        }
      ],
      "name": "Approval",
      "type": "event"
    },
    {
      "anonymous": false,
      "inputs": [
        {
          "indexed": true,
          "internalType": "address",
          "name": "owner",
          "type": "address"
        },
        {
          "indexed": true,
          "internalType": "address",
          "name": "operator",
          "type": "address"
        },
        {
          "indexed": false,
          "internalType": "bool",
          "name": "approved",
          "type": "bool"
        }
      ],
      "name": "ApprovalForAll",
      "type": "event"
    },
    {
      "anonymous": false,
      "inputs": [
        {
          "indexed": true,
          "internalType": "address",
          "name": "previousOwner",
          "type": "address"
        },
        {
          "indexed": true,
          "internalType": "address",
          "name": "newOwner",
          "type": "address"
        }
      ],
      "name": "OwnershipTransferred",
      "type": "event"
    },
    {
      "anonymous": false,
      "inputs": [
        {
          "indexed": true,
          "internalType": "address",
          "name": "from",
          "type": "address"
        },
        {
          "indexed": true,
          "internalType": "address",
          "name": "to",
          "type": "address"
        },
        {
          "indexed": true,
          "internalType": "uint256",
          "name": "tokenId",
          "type": "uint256"
        }
      ],
      "name": "Transfer",
      "type": "event"
    },
    {
      "inputs": [
        {
          "internalType": "address",
          "name": "to",
          "type": "address"
        },
        {
          "internalType": "uint256",
          "name": "tokenId",
          "type": "uint256"
        }
      ],
      "name": "approve",
      "outputs": [],
      "stateMutability": "nonpayable",
      "type": "function"
    },
    {
      "inputs": [
        {
          "internalType": "address",
          "name": "owner",
          "type": "address"
        }
      ],
      "name": "balanceOf",
      "outputs": [
        {
          "internalType": "uint256",
          "name": "",
          "type": "uint256"
        }
      ],
      "stateMutability": "view",
      "type": "function"
    },
    {
      "inputs": [],
      "name": "bridge",
      "outputs": [
        {
          "internalType": "address",
          "name": "",
          "type": "address"
        }
      ],
      "stateMutability": "view",
      "type": "function"
    },
    {
      "inputs": [
        {
          "internalType": "address",
          "name": "account",
          "type": "address"
        },
        {
          "internalType": "uint256",
          "name": "tokenId",
          "type": "uint256"
        }
      ],
      "name": "burn",
      "outputs": [],
      "stateMutability": "nonpayable",
      "type": "function"
    },
    {
      "inputs": [
        {
          "internalType": "address",
          "name": "account",
          "type": "address"
        },
        {
          "internalType": "uint256[]",
          "name": "tokenIds",
          "type": "uint256[]"
        }
      ],
      "name": "burnFrom",
      "outputs": [],
      "stateMutability": "nonpayable",
      "type": "function"
    },
    {
      "inputs": [
        {
          "internalType": "uint256",
          "name": "tokenId",
          "type": "uint256"
        }
      ],
      "name": "getApproved",
      "outputs": [
        {
          "internalType": "address",
          "name": "",
          "type": "address"
        }
      ],
      "stateMutability": "view",
      "type": "function"
    },
    {
      "inputs": [
        {
          "internalType": "address",
          "name": "owner",
          "type": "address"
        },
        {
          "internalType": "address",
          "name": "operator",
          "type": "address"
        }
      ],
      "name": "isApprovedForAll",
      "outputs": [
        {
          "internalType": "bool",
          "name": "",
          "type": "bool"
        }
      ],
      "stateMutability": "view",
      "type": "function"
    },
    {
      "inputs": [
        {
          "internalType": "address",
          "name": "account",
          "type": "address"
        },
        {
          "internalType": "uint256[]",
          "name": "tokenIds",
          "type": "uint256[]"
        }
      ],
      "name": "mint",
      "outputs": [],
      "stateMutability": "nonpayable",
      "type": "function"
    },
    {
      "inputs": [],
      "name": "name",
      "outputs": [
        {
          "internalType": "string",
          "name": "",
          "type": "string"
        }
      ],
      "stateMutability": "view",
      "type": "function"
    },
    {
      "inputs": [],
      "name": "owner",
      "outputs": [
        {
          "internalType": "address",
          "name": "",
          "type": "address"
        }
      ],
      "stateMutability": "view",
      "type": "function"
    },
    {
      "inputs": [
        {
          "internalType": "uint256",
          "name": "tokenId",
          "type": "uint256"
        }
      ],
      "name": "ownerOf",
      "outputs": [
        {
          "internalType": "address",
          "name": "",
          "type": "address"
        }
      ],
      "stateMutability": "view",
      "type": "function"
    },
    {
      "inputs": [],
      "name": "renounceOwnership",
      "outputs": [],
      "stateMutability": "nonpayable",
      "type": "function"
    },
    {
      "inputs": [
        {
          "internalType": "address",
          "name": "from",
          "type": "address"
        },
        {
          "internalType": "address",
          "name": "to",
          "type": "address"
        },
        {
          "internalType": "uint256",
          "name": "tokenId",
          "type": "uint256"
        }
      ],
      "name": "safeTransferFrom",
      "outputs": [],
      "stateMutability": "nonpayable",
      "type": "function"
    },
    {
      "inputs": [
        {
          "internalType": "address",
          "name": "from",
          "type": "address"
        },
        {
          "internalType": "address",
          "name": "to",
          "type": "address"
        },
        {
          "internalType": "uint256",
          "name": "tokenId",
          "type": "uint256"
        },
        {
          "internalType": "bytes",
          "name": "_data",
          "type": "bytes"
        }
      ],
      "name": "safeTransferFrom",
      "outputs": [],
      "stateMutability": "nonpayable",
      "type": "function"
    },
    {
      "inputs": [
        {
          "internalType": "address",
          "name": "operator",
          "type": "address"
        },
        {
          "internalType": "bool",
          "name": "approved",
          "type": "bool"
        }
      ],
      "name": "setApprovalForAll",
      "outputs": [],
      "stateMutability": "nonpayable",
      "type": "function"
    },
    {
      "inputs": [
        {
          "internalType": "string",
          "name": "baseURI",
          "type": "string"
        }
      ],
      "name": "setBaseURI",
      "outputs": [],
      "stateMutability": "nonpayable",
      "type": "function"
    },
    {
      "inputs": [
        {
          "internalType": "address",
          "name": "_bridgeAddress",
          "type": "address"
        }
      ],
      "name": "setBridgeContract",
      "outputs": [],
      "stateMutability": "nonpayable",
      "type": "function"
    },
    {
      "inputs": [
        {
          "internalType": "bytes4",
          "name": "interfaceId",
          "type": "bytes4"
        }
      ],
      "name": "supportsInterface",
      "outputs": [
        {
          "internalType": "bool",
          "name": "",
          "type": "bool"
        }
      ],
      "stateMutability": "view",
      "type": "function"
    },
    {
      "inputs": [],
      "name": "symbol",
      "outputs": [
        {
          "internalType": "string",
          "name": "",
          "type": "string"
        }
      ],
      "stateMutability": "view",
      "type": "function"
    },
    {
      "inputs": [
        {
          "internalType": "uint256",
          "name": "tokenId",
          "type": "uint256"
        }
      ],
      "name": "tokenURI",
      "outputs": [
        {
          "internalType": "string",
          "name": "",
          "type": "string"
        }
      ],
      "stateMutability": "view",
      "type": "function"
    },
    {
      "inputs": [
        {
          "internalType": "address",
          "name": "from",
          "type": "address"
        },
        {
          "internalType": "address",
          "name": "to",
          "type": "address"
        },
        {
          "internalType": "uint256",
          "name": "tokenId",
          "type": "uint256"
        }
      ],
      "name": "transferFrom",
      "outputs": [],
      "stateMutability": "nonpayable",
      "type": "function"
    },
    {
      "inputs": [
        {
          "internalType": "address",
          "name": "newOwner",
          "type": "address"
        }
      ],
      "name": "transferOwnership",
      "outputs": [],
      "stateMutability": "nonpayable",
      "type": "function"
    }
  ],
  "bytecode": "0x60806040523480156200001157600080fd5b5060405162001d5538038062001d558339810160408190526200003491620001e2565b604080518082018252600881526729b6b7b62134b93160c11b6020808301918252835180850190945260048452632124a92160e11b908401528151919291620000809160009162000126565b5080516200009690600190602084019062000126565b505050620000b3620000ad620000d060201b60201c565b620000d4565b8051620000c890600890602084019062000126565b5050620002fa565b3390565b600680546001600160a01b038381166001600160a01b0319831681179093556040519116919082907f8be0079c531659141344cd1fd0a4f28419497f9722a3daafe3b4186f6b6457e090600090a35050565b8280546200013490620002be565b90600052602060002090601f016020900481019282620001585760008555620001a3565b82601f106200017357805160ff1916838001178555620001a3565b82800160010185558215620001a3579182015b82811115620001a357825182559160200191906001019062000186565b50620001b1929150620001b5565b5090565b5b80821115620001b15760008155600101620001b6565b634e487b7160e01b600052604160045260246000fd5b60006020808385031215620001f657600080fd5b82516001600160401b03808211156200020e57600080fd5b818501915085601f8301126200022357600080fd5b815181811115620002385762000238620001cc565b604051601f8201601f19908116603f01168101908382118183101715620002635762000263620001cc565b8160405282815288868487010111156200027c57600080fd5b600093505b82841015620002a0578484018601518185018701529285019262000281565b82841115620002b25760008684830101525b98975050505050505050565b600181811c90821680620002d357607f821691505b602082108103620002f457634e487b7160e01b600052602260045260246000fd5b50919050565b611a4b806200030a6000396000f3fe608060405234801561001057600080fd5b50600436106101425760003560e01c806389af6107116100b8578063b88d4fde1161007c578063b88d4fde1461029e578063c87b56dd146102b1578063de836ebd146102c4578063e78cea92146102d7578063e985e9c5146102ea578063f2fde38b1461032657600080fd5b806389af61071461024c5780638da5cb5b1461025f57806395d89b41146102705780639dc29fac14610278578063a22cb4651461028b57600080fd5b806323b872dd1161010a57806323b872dd146101d757806342842e0e146101ea57806355f804b3146101fd5780636352211e1461021057806370a0823114610223578063715018a61461024457600080fd5b806301ffc9a71461014757806306fdde031461016f578063081812fc14610184578063095ea7b3146101af5780630b26cf66146101c4575b600080fd5b61015a610155366004611431565b610339565b60405190151581526020015b60405180910390f35b61017761038b565b60405161016691906114a6565b6101976101923660046114b9565b61041d565b6040516001600160a01b039091168152602001610166565b6101c26101bd3660046114ee565b6104b7565b005b6101c26101d2366004611518565b6105cc565b6101c26101e5366004611533565b61065d565b6101c26101f8366004611533565b61068f565b6101c261020b36600461156f565b6106aa565b61019761021e3660046114b9565b6106e0565b610236610231366004611518565b610757565b604051908152602001610166565b6101c26107de565b6101c261025a3660046115e1565b610814565b6006546001600160a01b0316610197565b61017761089d565b6101c26102863660046114ee565b6108ac565b6101c2610299366004611667565b610928565b6101c26102ac3660046116b9565b6109ec565b6101776102bf3660046114b9565b610a1e565b6101c26102d23660046115e1565b610af9565b600754610197906001600160a01b031681565b61015a6102f8366004611795565b6001600160a01b03918216600090815260056020908152604080832093909416825291909152205460ff1690565b6101c2610334366004611518565b610b7c565b60006001600160e01b031982166380ac58cd60e01b148061036a57506001600160e01b03198216635b5e139f60e01b145b8061038557506301ffc9a760e01b6001600160e01b03198316145b92915050565b60606000805461039a906117c8565b80601f01602080910402602001604051908101604052809291908181526020018280546103c6906117c8565b80156104135780601f106103e857610100808354040283529160200191610413565b820191906000526020600020905b8154815290600101906020018083116103f657829003601f168201915b5050505050905090565b6000818152600260205260408120546001600160a01b031661049b5760405162461bcd60e51b815260206004820152602c60248201527f4552433732313a20617070726f76656420717565727920666f72206e6f6e657860448201526b34b9ba32b73a103a37b5b2b760a11b60648201526084015b60405180910390fd5b506000908152600460205260409020546001600160a01b031690565b60006104c2826106e0565b9050806001600160a01b0316836001600160a01b03160361052f5760405162461bcd60e51b815260206004820152602160248201527f4552433732313a20617070726f76616c20746f2063757272656e74206f776e656044820152603960f91b6064820152608401610492565b336001600160a01b038216148061054b575061054b81336102f8565b6105bd5760405162461bcd60e51b815260206004820152603860248201527f4552433732313a20617070726f76652063616c6c6572206973206e6f74206f7760448201527f6e6572206e6f7220617070726f76656420666f7220616c6c00000000000000006064820152608401610492565b6105c78383610c17565b505050565b6006546001600160a01b031633146105f65760405162461bcd60e51b815260040161049290611802565b6001600160a01b03811661063b5760405162461bcd60e51b815260206004820152600c60248201526b5a45524f5f4144445245535360a01b6044820152606401610492565b600780546001600160a01b0319166001600160a01b0392909216919091179055565b610668335b82610c85565b6106845760405162461bcd60e51b815260040161049290611837565b6105c7838383610d7c565b6105c7838383604051806020016040528060008152506109ec565b6006546001600160a01b031633146106d45760405162461bcd60e51b815260040161049290611802565b6105c760088383611382565b6000818152600260205260408120546001600160a01b0316806103855760405162461bcd60e51b815260206004820152602960248201527f4552433732313a206f776e657220717565727920666f72206e6f6e657869737460448201526832b73a103a37b5b2b760b91b6064820152608401610492565b60006001600160a01b0382166107c25760405162461bcd60e51b815260206004820152602a60248201527f4552433732313a2062616c616e636520717565727920666f7220746865207a65604482015269726f206164647265737360b01b6064820152608401610492565b506001600160a01b031660009081526003602052604090205490565b6006546001600160a01b031633146108085760405162461bcd60e51b815260040161049290611802565b6108126000610f1c565b565b6007546001600160a01b031633146108625760405162461bcd60e51b815260206004820152601160248201527043616c6c6572206e6f742062726964676560781b6044820152606401610492565b60005b818110156108975761088f8484848481811061088357610883611888565b905060200201356108ac565b600101610865565b50505050565b60606001805461039a906117c8565b6108b533610662565b61091a5760405162461bcd60e51b815260206004820152603060248201527f4552433732314275726e61626c653a2063616c6c6572206973206e6f74206f7760448201526f1b995c881b9bdc88185c1c1c9bdd995960821b6064820152608401610492565b6109248282610f6e565b5050565b336001600160a01b038316036109805760405162461bcd60e51b815260206004820152601960248201527f4552433732313a20617070726f766520746f2063616c6c6572000000000000006044820152606401610492565b3360008181526005602090815260408083206001600160a01b03871680855290835292819020805460ff191686151590811790915590519081529192917f17307eab39ab6107e8899845ad3d59bd9653f200f220920489ca2b5937696c31910160405180910390a35050565b6109f63383610c85565b610a125760405162461bcd60e51b815260040161049290611837565b61089784848484610ffc565b6000818152600260205260409020546060906001600160a01b0316610a9d5760405162461bcd60e51b815260206004820152602f60248201527f4552433732314d657461646174613a2055524920717565727920666f72206e6f60448201526e3732bc34b9ba32b73a103a37b5b2b760891b6064820152608401610492565b6000610aa761102f565b90506000815111610ac75760405180602001604052806000815250610af2565b80610ad18461103e565b604051602001610ae292919061189e565b6040516020818303038152906040525b9392505050565b6007546001600160a01b03163314610b475760405162461bcd60e51b815260206004820152601160248201527043616c6c6572206e6f742062726964676560781b6044820152606401610492565b60005b8181101561089757610b7484848484818110610b6857610b68611888565b9050602002013561113f565b600101610b4a565b6006546001600160a01b03163314610ba65760405162461bcd60e51b815260040161049290611802565b6001600160a01b038116610c0b5760405162461bcd60e51b815260206004820152602660248201527f4f776e61626c653a206e6577206f776e657220697320746865207a65726f206160448201526564647265737360d01b6064820152608401610492565b610c1481610f1c565b50565b600081815260046020526040902080546001600160a01b0319166001600160a01b0384169081179091558190610c4c826106e0565b6001600160a01b03167f8c5be1e5ebec7d5bd14f71427d1e84f3dd0314c0f7b2291e5b200ac8c7c3b92560405160405180910390a45050565b6000818152600260205260408120546001600160a01b0316610cfe5760405162461bcd60e51b815260206004820152602c60248201527f4552433732313a206f70657261746f7220717565727920666f72206e6f6e657860448201526b34b9ba32b73a103a37b5b2b760a11b6064820152608401610492565b6000610d09836106e0565b9050806001600160a01b0316846001600160a01b03161480610d445750836001600160a01b0316610d398461041d565b6001600160a01b0316145b80610d7457506001600160a01b0380821660009081526005602090815260408083209388168352929052205460ff165b949350505050565b826001600160a01b0316610d8f826106e0565b6001600160a01b031614610df75760405162461bcd60e51b815260206004820152602960248201527f4552433732313a207472616e73666572206f6620746f6b656e2074686174206960448201526839903737ba1037bbb760b91b6064820152608401610492565b6001600160a01b038216610e595760405162461bcd60e51b8152602060048201526024808201527f4552433732313a207472616e7366657220746f20746865207a65726f206164646044820152637265737360e01b6064820152608401610492565b610e64600082610c17565b6001600160a01b0383166000908152600360205260408120805460019290610e8d9084906118e3565b90915550506001600160a01b0382166000908152600360205260408120805460019290610ebb9084906118fa565b909155505060008181526002602052604080822080546001600160a01b0319166001600160a01b0386811691821790925591518493918716917fddf252ad1be2c89b69c2b068fc378daa952ba7f163c4a11628f55a4df523b3ef91a4505050565b600680546001600160a01b038381166001600160a01b0319831681179093556040519116919082907f8be0079c531659141344cd1fd0a4f28419497f9722a3daafe3b4186f6b6457e090600090a35050565b610f79600082610c17565b6001600160a01b0382166000908152600360205260408120805460019290610fa29084906118e3565b909155505060008181526002602052604080822080546001600160a01b0319169055518291906001600160a01b038516907fddf252ad1be2c89b69c2b068fc378daa952ba7f163c4a11628f55a4df523b3ef908390a45050565b611007848484610d7c565b61101384848484611281565b6108975760405162461bcd60e51b815260040161049290611912565b60606008805461039a906117c8565b6060816000036110655750506040805180820190915260018152600360fc1b602082015290565b8160005b811561108f578061107981611964565b91506110889050600a83611993565b9150611069565b60008167ffffffffffffffff8111156110aa576110aa6116a3565b6040519080825280601f01601f1916602001820160405280156110d4576020820181803683370190505b5090505b8415610d74576110e96001836118e3565b91506110f6600a866119a7565b6111019060306118fa565b60f81b81838151811061111657611116611888565b60200101906001600160f81b031916908160001a905350611138600a86611993565b94506110d8565b6001600160a01b0382166111955760405162461bcd60e51b815260206004820181905260248201527f4552433732313a206d696e7420746f20746865207a65726f20616464726573736044820152606401610492565b6000818152600260205260409020546001600160a01b0316156111fa5760405162461bcd60e51b815260206004820152601c60248201527f4552433732313a20746f6b656e20616c7265616479206d696e746564000000006044820152606401610492565b6001600160a01b03821660009081526003602052604081208054600192906112239084906118fa565b909155505060008181526002602052604080822080546001600160a01b0319166001600160a01b03861690811790915590518392907fddf252ad1be2c89b69c2b068fc378daa952ba7f163c4a11628f55a4df523b3ef908290a45050565b60006001600160a01b0384163b1561137757604051630a85bd0160e11b81526001600160a01b0385169063150b7a02906112c59033908990889088906004016119bb565b6020604051808303816000875af1925050508015611300575060408051601f3d908101601f191682019092526112fd918101906119f8565b60015b61135d573d80801561132e576040519150601f19603f3d011682016040523d82523d6000602084013e611333565b606091505b5080516000036113555760405162461bcd60e51b815260040161049290611912565b805181602001fd5b6001600160e01b031916630a85bd0160e11b149050610d74565b506001949350505050565b82805461138e906117c8565b90600052602060002090601f0160209004810192826113b057600085556113f6565b82601f106113c95782800160ff198235161785556113f6565b828001600101855582156113f6579182015b828111156113f65782358255916020019190600101906113db565b50611402929150611406565b5090565b5b808211156114025760008155600101611407565b6001600160e01b031981168114610c1457600080fd5b60006020828403121561144357600080fd5b8135610af28161141b565b60005b83811015611469578181015183820152602001611451565b838111156108975750506000910152565b6000815180845261149281602086016020860161144e565b601f01601f19169290920160200192915050565b602081526000610af2602083018461147a565b6000602082840312156114cb57600080fd5b5035919050565b80356001600160a01b03811681146114e957600080fd5b919050565b6000806040838503121561150157600080fd5b61150a836114d2565b946020939093013593505050565b60006020828403121561152a57600080fd5b610af2826114d2565b60008060006060848603121561154857600080fd5b611551846114d2565b925061155f602085016114d2565b9150604084013590509250925092565b6000806020838503121561158257600080fd5b823567ffffffffffffffff8082111561159a57600080fd5b818501915085601f8301126115ae57600080fd5b8135818111156115bd57600080fd5b8660208285010111156115cf57600080fd5b60209290920196919550909350505050565b6000806000604084860312156115f657600080fd5b6115ff846114d2565b9250602084013567ffffffffffffffff8082111561161c57600080fd5b818601915086601f83011261163057600080fd5b81358181111561163f57600080fd5b8760208260051b850101111561165457600080fd5b6020830194508093505050509250925092565b6000806040838503121561167a57600080fd5b611683836114d2565b91506020830135801515811461169857600080fd5b809150509250929050565b634e487b7160e01b600052604160045260246000fd5b600080600080608085870312156116cf57600080fd5b6116d8856114d2565b93506116e6602086016114d2565b925060408501359150606085013567ffffffffffffffff8082111561170a57600080fd5b818701915087601f83011261171e57600080fd5b813581811115611730576117306116a3565b604051601f8201601f19908116603f01168101908382118183101715611758576117586116a3565b816040528281528a602084870101111561177157600080fd5b82602086016020830137600060208483010152809550505050505092959194509250565b600080604083850312156117a857600080fd5b6117b1836114d2565b91506117bf602084016114d2565b90509250929050565b600181811c908216806117dc57607f821691505b6020821081036117fc57634e487b7160e01b600052602260045260246000fd5b50919050565b6020808252818101527f4f776e61626c653a2063616c6c6572206973206e6f7420746865206f776e6572604082015260600190565b60208082526031908201527f4552433732313a207472616e736665722063616c6c6572206973206e6f74206f6040820152701ddb995c881b9bdc88185c1c1c9bdd9959607a1b606082015260800190565b634e487b7160e01b600052603260045260246000fd5b600083516118b081846020880161144e565b8351908301906118c481836020880161144e565b01949350505050565b634e487b7160e01b600052601160045260246000fd5b6000828210156118f5576118f56118cd565b500390565b6000821982111561190d5761190d6118cd565b500190565b60208082526032908201527f4552433732313a207472616e7366657220746f206e6f6e20455243373231526560408201527131b2b4bb32b91034b6b83632b6b2b73a32b960711b606082015260800190565b600060018201611976576119766118cd565b5060010190565b634e487b7160e01b600052601260045260246000fd5b6000826119a2576119a261197d565b500490565b6000826119b6576119b661197d565b500690565b6001600160a01b03858116825284166020820152604081018390526080606082018190526000906119ee9083018461147a565b9695505050505050565b600060208284031215611a0a57600080fd5b8151610af28161141b56fea2646970667358221220d9297a92f6968c6d8d10ae86021bfe2e3c0d0b1e8e04ff94848eb84567c20faf64736f6c634300080d0033",
  "linkReferences": {},
  "deployedLinkReferences": {}
}