{
  "_format": "hh-sol-artifact-1",
  "contractName": "SmolBirb",
  "sourceName": "contracts/SmolBirb.sol",
  "abi": [
    {
      "inputs": [
        {
          "internalType": "string",
          "name": "baseURI",
          "type": "string"
        }
      ],
      "stateMutability": "nonpayable",
      "type": "constructor"
    },
    {
      "inputs": [],
      "name": "AddressNotEligibleForPresaleMint",
      "type": "error"
    },
    {
      "inputs": [],
      "name": "ApprovalCallerNotOwnerNorApproved",
      "type": "error"
    },
    {
      "inputs": [],
      "name": "ApprovalQueryForNonexistentToken",
      "type": "error"
    },
    {
      "inputs": [],
      "name": "ApprovalToCurrentOwner",
      "type": "error"
    },
    {
      "inputs": [],
      "name": "ApproveToCaller",
      "type": "error"
    },
    {
      "inputs": [],
      "name": "BalanceQueryForZeroAddress",
      "type": "error"
    },
    {
      "inputs": [],
      "name": "CallerIsContract",
      "type": "error"
    },
    {
      "inputs": [],
      "name": "ExceedsMaximumSupply",
      "type": "error"
    },
    {
      "inputs": [],
      "name": "IncorrectEtherSent",
      "type": "error"
    },
    {
      "inputs": [],
      "name": "InvalidQueryRange",
      "type": "error"
    },
    {
      "inputs": [],
      "name": "MintToZeroAddress",
      "type": "error"
    },
    {
      "inputs": [],
      "name": "MintZeroQuantity",
      "type": "error"
    },
    {
      "inputs": [],
      "name": "OwnerQueryForNonexistentToken",
      "type": "error"
    },
    {
      "inputs": [],
      "name": "PresaleNotStarted",
      "type": "error"
    },
    {
      "inputs": [],
      "name": "PublicSaleNotStarted",
      "type": "error"
    },
    {
      "inputs": [],
      "name": "TransactionExceedsMaxNFTsAllowed",
      "type": "error"
    },
    {
      "inputs": [],
      "name": "TransferCallerNotOwnerNorApproved",
      "type": "error"
    },
    {
      "inputs": [],
      "name": "TransferFailed",
      "type": "error"
    },
    {
      "inputs": [],
      "name": "TransferFromIncorrectOwner",
      "type": "error"
    },
    {
      "inputs": [],
      "name": "TransferToNonERC721ReceiverImplementer",
      "type": "error"
    },
    {
      "inputs": [],
      "name": "TransferToZeroAddress",
      "type": "error"
    },
    {
      "inputs": [],
      "name": "URIQueryForNonexistentToken",
      "type": "error"
    },
    {
      "anonymous": false,
      "inputs": [
        {
          "indexed": true,
          "internalType": "address",
          "name": "owner",
          "type": "address"
        },
        {
          "indexed": true,
          "internalType": "address",
          "name": "approved",
          "type": "address"
        },
        {
          "indexed": true,
          "internalType": "uint256",
          "name": "tokenId",
          "type": "uint256"
        }
      ],
      "name": "Approval",
      "type": "event"
    },
    {
      "anonymous": false,
      "inputs": [
        {
          "indexed": true,
          "internalType": "address",
          "name": "owner",
          "type": "address"
        },
        {
          "indexed": true,
          "internalType": "address",
          "name": "operator",
          "type": "address"
        },
        {
          "indexed": false,
          "internalType": "bool",
          "name": "approved",
          "type": "bool"
        }
      ],
      "name": "ApprovalForAll",
      "type": "event"
    },
    {
      "anonymous": false,
      "inputs": [
        {
          "indexed": true,
          "internalType": "address",
          "name": "previousOwner",
          "type": "address"
        },
        {
          "indexed": true,
          "internalType": "address",
          "name": "newOwner",
          "type": "address"
        }
      ],
      "name": "OwnershipTransferred",
      "type": "event"
    },
    {
      "anonymous": false,
      "inputs": [
        {
          "indexed": true,
          "internalType": "address",
          "name": "from",
          "type": "address"
        },
        {
          "indexed": true,
          "internalType": "address",
          "name": "to",
          "type": "address"
        },
        {
          "indexed": true,
          "internalType": "uint256",
          "name": "tokenId",
          "type": "uint256"
        }
      ],
      "name": "Transfer",
      "type": "event"
    },
    {
      "inputs": [],
      "name": "MAX_SUPPLY",
      "outputs": [
        {
          "internalType": "uint256",
          "name": "",
          "type": "uint256"
        }
      ],
      "stateMutability": "view",
      "type": "function"
    },
    {
      "inputs": [
        {
          "internalType": "address[]",
          "name": "_addresses",
          "type": "address[]"
        },
        {
          "internalType": "uint256",
          "name": "_count",
          "type": "uint256"
        }
      ],
      "name": "airdrop",
      "outputs": [],
      "stateMutability": "nonpayable",
      "type": "function"
    },
    {
      "inputs": [
        {
          "internalType": "address",
          "name": "to",
          "type": "address"
        },
        {
          "internalType": "uint256",
          "name": "tokenId",
          "type": "uint256"
        }
      ],
      "name": "approve",
      "outputs": [],
      "stateMutability": "nonpayable",
      "type": "function"
    },
    {
      "inputs": [
        {
          "internalType": "address",
          "name": "owner",
          "type": "address"
        }
      ],
      "name": "balanceOf",
      "outputs": [
        {
          "internalType": "uint256",
          "name": "",
          "type": "uint256"
        }
      ],
      "stateMutability": "view",
      "type": "function"
    },
    {
      "inputs": [
        {
          "internalType": "uint256",
          "name": "_presalePrice",
          "type": "uint256"
        }
      ],
      "name": "changePresalePrice",
      "outputs": [],
      "stateMutability": "nonpayable",
      "type": "function"
    },
    {
      "inputs": [
        {
          "internalType": "uint256",
          "name": "_publicPrice",
          "type": "uint256"
        }
      ],
      "name": "changePublicPrice",
      "outputs": [],
      "stateMutability": "nonpayable",
      "type": "function"
    },
    {
      "inputs": [
        {
          "internalType": "uint256",
          "name": "tokenId",
          "type": "uint256"
        }
      ],
      "name": "explicitOwnershipOf",
      "outputs": [
        {
          "components": [
            {
              "internalType": "address",
              "name": "addr",
              "type": "address"
            },
            {
              "internalType": "uint64",
              "name": "startTimestamp",
              "type": "uint64"
            },
            {
              "internalType": "bool",
              "name": "burned",
              "type": "bool"
            }
          ],
          "internalType": "struct ERC721A.TokenOwnership",
          "name": "",
          "type": "tuple"
        }
      ],
      "stateMutability": "view",
      "type": "function"
    },
    {
      "inputs": [
        {
          "internalType": "uint256[]",
          "name": "tokenIds",
          "type": "uint256[]"
        }
      ],
      "name": "explicitOwnershipsOf",
      "outputs": [
        {
          "components": [
            {
              "internalType": "address",
              "name": "addr",
              "type": "address"
            },
            {
              "internalType": "uint64",
              "name": "startTimestamp",
              "type": "uint64"
            },
            {
              "internalType": "bool",
              "name": "burned",
              "type": "bool"
            }
          ],
          "internalType": "struct ERC721A.TokenOwnership[]",
          "name": "",
          "type": "tuple[]"
        }
      ],
      "stateMutability": "view",
      "type": "function"
    },
    {
      "inputs": [
        {
          "internalType": "uint256",
          "name": "tokenId",
          "type": "uint256"
        }
      ],
      "name": "getApproved",
      "outputs": [
        {
          "internalType": "address",
          "name": "",
          "type": "address"
        }
      ],
      "stateMutability": "view",
      "type": "function"
    },
    {
      "inputs": [
        {
          "internalType": "address",
          "name": "owner",
          "type": "address"
        },
        {
          "internalType": "address",
          "name": "operator",
          "type": "address"
        }
      ],
      "name": "isApprovedForAll",
      "outputs": [
        {
          "internalType": "bool",
          "name": "",
          "type": "bool"
        }
      ],
      "stateMutability": "view",
      "type": "function"
    },
    {
      "inputs": [],
      "name": "merkleRoot",
      "outputs": [
        {
          "internalType": "bytes32",
          "name": "",
          "type": "bytes32"
        }
      ],
      "stateMutability": "view",
      "type": "function"
    },
    {
      "inputs": [
        {
          "internalType": "address",
          "name": "",
          "type": "address"
        }
      ],
      "name": "mintCounts",
      "outputs": [
        {
          "internalType": "uint256",
          "name": "",
          "type": "uint256"
        }
      ],
      "stateMutability": "view",
      "type": "function"
    },
    {
      "inputs": [],
      "name": "name",
      "outputs": [
        {
          "internalType": "string",
          "name": "",
          "type": "string"
        }
      ],
      "stateMutability": "view",
      "type": "function"
    },
    {
      "inputs": [],
      "name": "owner",
      "outputs": [
        {
          "internalType": "address",
          "name": "",
          "type": "address"
        }
      ],
      "stateMutability": "view",
      "type": "function"
    },
    {
      "inputs": [
        {
          "internalType": "uint256",
          "name": "tokenId",
          "type": "uint256"
        }
      ],
      "name": "ownerOf",
      "outputs": [
        {
          "internalType": "address",
          "name": "",
          "type": "address"
        }
      ],
      "stateMutability": "view",
      "type": "function"
    },
    {
      "inputs": [
        {
          "internalType": "bytes32[]",
          "name": "_proof",
          "type": "bytes32[]"
        }
      ],
      "name": "presaleMint",
      "outputs": [],
      "stateMutability": "payable",
      "type": "function"
    },
    {
      "inputs": [],
      "name": "presalePrice",
      "outputs": [
        {
          "internalType": "uint256",
          "name": "",
          "type": "uint256"
        }
      ],
      "stateMutability": "view",
      "type": "function"
    },
    {
      "inputs": [
        {
          "internalType": "uint256",
          "name": "_count",
          "type": "uint256"
        }
      ],
      "name": "publicMint",
      "outputs": [],
      "stateMutability": "payable",
      "type": "function"
    },
    {
      "inputs": [],
      "name": "publicPrice",
      "outputs": [
        {
          "internalType": "uint256",
          "name": "",
          "type": "uint256"
        }
      ],
      "stateMutability": "view",
      "type": "function"
    },
    {
      "inputs": [],
      "name": "renounceOwnership",
      "outputs": [],
      "stateMutability": "nonpayable",
      "type": "function"
    },
    {
      "inputs": [
        {
          "internalType": "uint256",
          "name": "_count",
          "type": "uint256"
        }
      ],
      "name": "reserveSmolBirb",
      "outputs": [],
      "stateMutability": "nonpayable",
      "type": "function"
    },
    {
      "inputs": [
        {
          "internalType": "address",
          "name": "from",
          "type": "address"
        },
        {
          "internalType": "address",
          "name": "to",
          "type": "address"
        },
        {
          "internalType": "uint256",
          "name": "tokenId",
          "type": "uint256"
        }
      ],
      "name": "safeTransferFrom",
      "outputs": [],
      "stateMutability": "nonpayable",
      "type": "function"
    },
    {
      "inputs": [
        {
          "internalType": "address",
          "name": "from",
          "type": "address"
        },
        {
          "internalType": "address",
          "name": "to",
          "type": "address"
        },
        {
          "internalType": "uint256",
          "name": "tokenId",
          "type": "uint256"
        },
        {
          "internalType": "bytes",
          "name": "_data",
          "type": "bytes"
        }
      ],
      "name": "safeTransferFrom",
      "outputs": [],
      "stateMutability": "nonpayable",
      "type": "function"
    },
    {
      "inputs": [],
      "name": "saleStatus",
      "outputs": [
        {
          "internalType": "enum SmolBirb.SALE_STATUS",
          "name": "",
          "type": "uint8"
        }
      ],
      "stateMutability": "view",
      "type": "function"
    },
    {
      "inputs": [
        {
          "internalType": "address",
          "name": "operator",
          "type": "address"
        },
        {
          "internalType": "bool",
          "name": "approved",
          "type": "bool"
        }
      ],
      "name": "setApprovalForAll",
      "outputs": [],
      "stateMutability": "nonpayable",
      "type": "function"
    },
    {
      "inputs": [
        {
          "internalType": "string",
          "name": "baseURI",
          "type": "string"
        }
      ],
      "name": "setBaseURI",
      "outputs": [],
      "stateMutability": "nonpayable",
      "type": "function"
    },
    {
      "inputs": [
        {
          "internalType": "bytes32",
          "name": "_merkleRoot",
          "type": "bytes32"
        }
      ],
      "name": "setMerkleRoot",
      "outputs": [],
      "stateMutability": "nonpayable",
      "type": "function"
    },
    {
      "inputs": [
        {
          "internalType": "enum SmolBirb.SALE_STATUS",
          "name": "_status",
          "type": "uint8"
        }
      ],
      "name": "setSaleStatus",
      "outputs": [],
      "stateMutability": "nonpayable",
      "type": "function"
    },
    {
      "inputs": [
        {
          "internalType": "bytes4",
          "name": "interfaceId",
          "type": "bytes4"
        }
      ],
      "name": "supportsInterface",
      "outputs": [
        {
          "internalType": "bool",
          "name": "",
          "type": "bool"
        }
      ],
      "stateMutability": "view",
      "type": "function"
    },
    {
      "inputs": [],
      "name": "symbol",
      "outputs": [
        {
          "internalType": "string",
          "name": "",
          "type": "string"
        }
      ],
      "stateMutability": "view",
      "type": "function"
    },
    {
      "inputs": [
        {
          "internalType": "uint256",
          "name": "tokenId",
          "type": "uint256"
        }
      ],
      "name": "tokenURI",
      "outputs": [
        {
          "internalType": "string",
          "name": "",
          "type": "string"
        }
      ],
      "stateMutability": "view",
      "type": "function"
    },
    {
      "inputs": [
        {
          "internalType": "address",
          "name": "owner",
          "type": "address"
        }
      ],
      "name": "tokensOfOwner",
      "outputs": [
        {
          "internalType": "uint256[]",
          "name": "",
          "type": "uint256[]"
        }
      ],
      "stateMutability": "view",
      "type": "function"
    },
    {
      "inputs": [
        {
          "internalType": "address",
          "name": "owner",
          "type": "address"
        },
        {
          "internalType": "uint256",
          "name": "start",
          "type": "uint256"
        },
        {
          "internalType": "uint256",
          "name": "stop",
          "type": "uint256"
        }
      ],
      "name": "tokensOfOwnerIn",
      "outputs": [
        {
          "internalType": "uint256[]",
          "name": "",
          "type": "uint256[]"
        }
      ],
      "stateMutability": "view",
      "type": "function"
    },
    {
      "inputs": [],
      "name": "totalSupply",
      "outputs": [
        {
          "internalType": "uint256",
          "name": "",
          "type": "uint256"
        }
      ],
      "stateMutability": "view",
      "type": "function"
    },
    {
      "inputs": [
        {
          "internalType": "address",
          "name": "from",
          "type": "address"
        },
        {
          "internalType": "address",
          "name": "to",
          "type": "address"
        },
        {
          "internalType": "uint256",
          "name": "tokenId",
          "type": "uint256"
        }
      ],
      "name": "transferFrom",
      "outputs": [],
      "stateMutability": "nonpayable",
      "type": "function"
    },
    {
      "inputs": [
        {
          "internalType": "address",
          "name": "newOwner",
          "type": "address"
        }
      ],
      "name": "transferOwnership",
      "outputs": [],
      "stateMutability": "nonpayable",
      "type": "function"
    },
    {
      "inputs": [],
      "name": "withdraw",
      "outputs": [],
      "stateMutability": "nonpayable",
      "type": "function"
    }
  ],
  "bytecode": "0x6080604052668e1bc9bf040000600a5566d529ae9e860000600b553480156200002757600080fd5b5060405162002a1838038062002a188339810160408190526200004a91620001ea565b604080518082018252600881526729b6b7b62134b93160c11b6020808301918252835180850190945260048452632124a92160e11b90840152815191929162000096916002916200012e565b508051620000ac9060039060208401906200012e565b5050600160005550620000bf33620000dc565b8051620000d49060099060208401906200012e565b505062000302565b600880546001600160a01b038381166001600160a01b0319831681179093556040519116919082907f8be0079c531659141344cd1fd0a4f28419497f9722a3daafe3b4186f6b6457e090600090a35050565b8280546200013c90620002c6565b90600052602060002090601f016020900481019282620001605760008555620001ab565b82601f106200017b57805160ff1916838001178555620001ab565b82800160010185558215620001ab579182015b82811115620001ab5782518255916020019190600101906200018e565b50620001b9929150620001bd565b5090565b5b80821115620001b95760008155600101620001be565b634e487b7160e01b600052604160045260246000fd5b60006020808385031215620001fe57600080fd5b82516001600160401b03808211156200021657600080fd5b818501915085601f8301126200022b57600080fd5b815181811115620002405762000240620001d4565b604051601f8201601f19908116603f011681019083821181831017156200026b576200026b620001d4565b8160405282815288868487010111156200028457600080fd5b600093505b82841015620002a8578484018601518185018701529285019262000289565b82841115620002ba5760008684830101525b98975050505050505050565b600181811c90821680620002db57607f821691505b602082108103620002fc57634e487b7160e01b600052602260045260246000fd5b50919050565b61270680620003126000396000f3fe6080604052600436106102195760003560e01c806370a0823111610123578063a22cb465116100ab578063c87b56dd1161006f578063c87b56dd14610636578063e985e9c514610656578063edc0c72c14610676578063f2fde38b14610689578063f9020e33146106a957600080fd5b8063a22cb46514610593578063a945bf80146105b3578063b88d4fde146105c9578063c204642c146105e9578063c23dc68f1461060957600080fd5b80638606d938116100f25780638606d938146105005780638da5cb5b1461052057806395d89b411461053e57806399a2557a146105535780639d7e8d5f1461057357600080fd5b806370a082311461047e578063715018a61461049e5780637cb64759146104b35780638462151c146104d357600080fd5b80632eb4a7ab116101a65780634891ad88116101755780634891ad88146103c457806353277879146103e457806355f804b3146104115780635bbb2177146104315780636352211e1461045e57600080fd5b80632eb4a7ab1461036357806332cb6b0c146103795780633ccfd60b1461038f57806342842e0e146103a457600080fd5b8063081812fc116101ed578063081812fc146102bb578063095ea7b3146102f357806318160ddd1461031357806323b872dd146103305780632db115441461035057600080fd5b80620e7fa81461021e57806301ffc9a71461024757806306fdde03146102775780630806ef7e14610299575b600080fd5b34801561022a57600080fd5b50610234600a5481565b6040519081526020015b60405180910390f35b34801561025357600080fd5b50610267610262366004611eff565b6106d7565b604051901515815260200161023e565b34801561028357600080fd5b5061028c610729565b60405161023e9190611f74565b3480156102a557600080fd5b506102b96102b4366004611f87565b6107bb565b005b3480156102c757600080fd5b506102db6102d6366004611f87565b610837565b6040516001600160a01b03909116815260200161023e565b3480156102ff57600080fd5b506102b961030e366004611fbc565b61087b565b34801561031f57600080fd5b506001546000540360001901610234565b34801561033c57600080fd5b506102b961034b366004611fe6565b610908565b6102b961035e366004611f87565b610913565b34801561036f57600080fd5b50610234600c5481565b34801561038557600080fd5b50610234611b3981565b34801561039b57600080fd5b506102b9610a26565b3480156103b057600080fd5b506102b96103bf366004611fe6565b610abc565b3480156103d057600080fd5b506102b96103df366004612022565b610ad7565b3480156103f057600080fd5b506102346103ff366004612043565b600d6020526000908152604090205481565b34801561041d57600080fd5b506102b961042c36600461205e565b610b2e565b34801561043d57600080fd5b5061045161044c366004612115565b610b64565b60405161023e91906121ba565b34801561046a57600080fd5b506102db610479366004611f87565b610c2a565b34801561048a57600080fd5b50610234610499366004612043565b610c3c565b3480156104aa57600080fd5b506102b9610c8a565b3480156104bf57600080fd5b506102b96104ce366004611f87565b610cc0565b3480156104df57600080fd5b506104f36104ee366004612043565b610cef565b60405161023e9190612224565b34801561050c57600080fd5b506102b961051b366004611f87565b610e34565b34801561052c57600080fd5b506008546001600160a01b03166102db565b34801561054a57600080fd5b5061028c610e63565b34801561055f57600080fd5b506104f361056e36600461225c565b610e72565b34801561057f57600080fd5b506102b961058e366004611f87565b611033565b34801561059f57600080fd5b506102b96105ae36600461228f565b611062565b3480156105bf57600080fd5b50610234600b5481565b3480156105d557600080fd5b506102b96105e43660046122cb565b6110f7565b3480156105f557600080fd5b506102b96106043660046123d5565b611148565b34801561061557600080fd5b50610629610624366004611f87565b611213565b60405161023e9190612420565b34801561064257600080fd5b5061028c610651366004611f87565b6112cd565b34801561066257600080fd5b50610267610671366004612455565b611350565b6102b9610684366004612488565b61137e565b34801561069557600080fd5b506102b96106a4366004612043565b611532565b3480156106b557600080fd5b506008546106ca90600160a01b900460ff1681565b60405161023e91906124df565b60006001600160e01b031982166380ac58cd60e01b148061070857506001600160e01b03198216635b5e139f60e01b145b8061072357506301ffc9a760e01b6001600160e01b03198316145b92915050565b60606002805461073890612507565b80601f016020809104026020016040519081016040528092919081815260200182805461076490612507565b80156107b15780601f10610786576101008083540402835291602001916107b1565b820191906000526020600020905b81548152906001019060200180831161079457829003601f168201915b5050505050905090565b6008546001600160a01b031633146107ee5760405162461bcd60e51b81526004016107e590612541565b60405180910390fd5b80611b39816108006000546000190190565b61080a919061258c565b111561082957604051638f0c6ebf60e01b815260040160405180910390fd5b61083333836115ca565b5050565b600061084282611606565b61085f576040516333d1c03960e21b815260040160405180910390fd5b506000908152600660205260409020546001600160a01b031690565b600061088682610c2a565b9050806001600160a01b0316836001600160a01b0316036108ba5760405163250fdee360e21b815260040160405180910390fd5b336001600160a01b038216148015906108da57506108d88133611350565b155b156108f8576040516367d9dca160e11b815260040160405180910390fd5b61090383838361163f565b505050565b61090383838361169b565b80611b39816109256000546000190190565b61092f919061258c565b111561094e57604051638f0c6ebf60e01b815260040160405180910390fd5b6002600854600160a01b900460ff16600281111561096e5761096e6124c9565b1461098c5760405163ac4d09c760e01b815260040160405180910390fd5b81600b5461099a91906125a4565b3410156109ba57604051635fa2c2b960e11b815260040160405180910390fd5b336000908152600d60205260409020546005906109d890849061258c565b11156109f75760405163b3f26edb60e01b815260040160405180910390fd5b336000908152600d602052604081208054849290610a1690849061258c565b90915550610833905033836115ca565b6008546001600160a01b03163314610a505760405162461bcd60e51b81526004016107e590612541565b604051600090339047908381818185875af1925050503d8060008114610a92576040519150601f19603f3d011682016040523d82523d6000602084013e610a97565b606091505b5050905080610ab9576040516312171d8360e31b815260040160405180910390fd5b50565b610903838383604051806020016040528060008152506110f7565b6008546001600160a01b03163314610b015760405162461bcd60e51b81526004016107e590612541565b6008805482919060ff60a01b1916600160a01b836002811115610b2657610b266124c9565b021790555050565b6008546001600160a01b03163314610b585760405162461bcd60e51b81526004016107e590612541565b61090360098383611e50565b80516060906000816001600160401b03811115610b8357610b836120cf565b604051908082528060200260200182016040528015610bce57816020015b6040805160608101825260008082526020808301829052928201528252600019909201910181610ba15790505b50905060005b828114610c2257610bfd858281518110610bf057610bf06125c3565b6020026020010151611213565b828281518110610c0f57610c0f6125c3565b6020908102919091010152600101610bd4565b509392505050565b6000610c3582611889565b5192915050565b60006001600160a01b038216610c65576040516323d3ad8160e21b815260040160405180910390fd5b506001600160a01b03166000908152600560205260409020546001600160401b031690565b6008546001600160a01b03163314610cb45760405162461bcd60e51b81526004016107e590612541565b610cbe60006119b0565b565b6008546001600160a01b03163314610cea5760405162461bcd60e51b81526004016107e590612541565b600c55565b60606000806000610cff85610c3c565b90506000816001600160401b03811115610d1b57610d1b6120cf565b604051908082528060200260200182016040528015610d44578160200160208202803683370190505b509050610d6a604080516060810182526000808252602082018190529181019190915290565b60015b838614610e2857600081815260046020908152604091829020825160608101845290546001600160a01b0381168252600160a01b81046001600160401b031692820192909252600160e01b90910460ff1615159181018290529250610e205781516001600160a01b031615610de157815194505b876001600160a01b0316856001600160a01b031603610e205780838780600101985081518110610e1357610e136125c3565b6020026020010181815250505b600101610d6d565b50909695505050505050565b6008546001600160a01b03163314610e5e5760405162461bcd60e51b81526004016107e590612541565b600a55565b60606003805461073890612507565b6060818310610e9457604051631960ccad60e11b815260040160405180910390fd5b600080546001851015610ea657600194505b80841115610eb2578093505b6000610ebd87610c3c565b905084861015610edc5785850381811015610ed6578091505b50610ee0565b5060005b6000816001600160401b03811115610efa57610efa6120cf565b604051908082528060200260200182016040528015610f23578160200160208202803683370190505b50905081600003610f3957935061102c92505050565b6000610f4488611213565b905060008160400151610f55575080515b885b888114158015610f675750848714155b1561102057600081815260046020908152604091829020825160608101845290546001600160a01b0381168252600160a01b81046001600160401b031692820192909252600160e01b90910460ff16151591810182905293506110185782516001600160a01b031615610fd957825191505b8a6001600160a01b0316826001600160a01b031603611018578084888060010199508151811061100b5761100b6125c3565b6020026020010181815250505b600101610f57565b50505092835250909150505b9392505050565b6008546001600160a01b0316331461105d5760405162461bcd60e51b81526004016107e590612541565b600b55565b336001600160a01b0383160361108b5760405163b06307db60e01b815260040160405180910390fd5b3360008181526007602090815260408083206001600160a01b03871680855290835292819020805460ff191686151590811790915590519081529192917f17307eab39ab6107e8899845ad3d59bd9653f200f220920489ca2b5937696c31910160405180910390a35050565b61110284848461169b565b6001600160a01b0383163b15158015611124575061112284848484611a02565b155b15611142576040516368d2bf6b60e11b815260040160405180910390fd5b50505050565b6008546001600160a01b031633146111725760405162461bcd60e51b81526004016107e590612541565b61117c82826125a4565b611b398161118d6000546000190190565b611197919061258c565b11156111b657604051638f0c6ebf60e01b815260040160405180910390fd5b8260005b81811461120b576112038686838181106111d6576111d66125c3565b90506020020160208101906111eb9190612043565b85604051806020016040528060008152506000611aee565b6001016111ba565b505050505050565b6040805160608082018352600080835260208084018290528385018290528451928301855281835282018190529281019290925290600183108061125957506000548310155b156112645792915050565b50600082815260046020908152604091829020825160608101845290546001600160a01b0381168252600160a01b81046001600160401b031692820192909252600160e01b90910460ff1615801592820192909252906112c45792915050565b61102c83611889565b60606112d882611606565b6112f557604051630a14c4b560e41b815260040160405180910390fd5b60006112ff611cbf565b9050805160000361131f576040518060200160405280600081525061102c565b8061132984611cce565b60405160200161133a9291906125d9565b6040516020818303038152906040529392505050565b6001600160a01b03918216600090815260076020908152604080832093909416825291909152205460ff1690565b6001611b39816113916000546000190190565b61139b919061258c565b11156113ba57604051638f0c6ebf60e01b815260040160405180910390fd5b600854600160a01b900460ff1660008160028111156113db576113db6124c9565b14806113f8575060028160028111156113f6576113f66124c9565b145b1561141657604051631385865760e21b815260040160405180910390fd5b61148b84848080602002602001604051908101604052809392919081815260200183836020028082843760009201919091525050600c546040516bffffffffffffffffffffffff193360601b166020820152909250603401905060405160208183030381529060405280519060200120611dce565b6114a857604051633f8d373d60e21b815260040160405180910390fd5b600a543410156114cb57604051635fa2c2b960e11b815260040160405180910390fd5b336000908152600d60205260409020546001906114e8908261258c565b11156115075760405163b3f26edb60e01b815260040160405180910390fd5b336000908152600d6020526040812080549161152283612608565b91905055506111423360016115ca565b6008546001600160a01b0316331461155c5760405162461bcd60e51b81526004016107e590612541565b6001600160a01b0381166115c15760405162461bcd60e51b815260206004820152602660248201527f4f776e61626c653a206e6577206f776e657220697320746865207a65726f206160448201526564647265737360d01b60648201526084016107e5565b610ab9816119b0565b3233146115ea57604051637df1f81760e01b815260040160405180910390fd5b6108338282604051806020016040528060008152506000611aee565b60008160011115801561161a575060005482105b8015610723575050600090815260046020526040902054600160e01b900460ff161590565b60008281526006602052604080822080546001600160a01b0319166001600160a01b0387811691821790925591518593918516917f8c5be1e5ebec7d5bd14f71427d1e84f3dd0314c0f7b2291e5b200ac8c7c3b92591a4505050565b60006116a682611889565b9050836001600160a01b031681600001516001600160a01b0316146116dd5760405162a1148160e81b815260040160405180910390fd5b6000336001600160a01b03861614806116fb57506116fb8533611350565b8061171657503361170b84610837565b6001600160a01b0316145b90508061173657604051632ce44b5f60e11b815260040160405180910390fd5b6001600160a01b03841661175d57604051633a954ecd60e21b815260040160405180910390fd5b6117696000848761163f565b6001600160a01b038581166000908152600560209081526040808320805467ffffffffffffffff198082166001600160401b0392831660001901831617909255898616808652838620805493841693831660019081018416949094179055898652600490945282852080546001600160e01b031916909417600160a01b4290921691909102178355870180845292208054919390911661183d57600054821461183d57805460208601516001600160401b0316600160a01b026001600160e01b03199091166001600160a01b038a16171781555b50505082846001600160a01b0316866001600160a01b03167fddf252ad1be2c89b69c2b068fc378daa952ba7f163c4a11628f55a4df523b3ef60405160405180910390a45b5050505050565b604080516060810182526000808252602082018190529181019190915281806001111580156118b9575060005481105b1561199757600081815260046020908152604091829020825160608101845290546001600160a01b0381168252600160a01b81046001600160401b031692820192909252600160e01b90910460ff161515918101829052906119955780516001600160a01b03161561192c579392505050565b5060001901600081815260046020908152604091829020825160608101845290546001600160a01b038116808352600160a01b82046001600160401b031693830193909352600160e01b900460ff1615159281019290925215611990579392505050565b61192c565b505b604051636f96cda160e11b815260040160405180910390fd5b600880546001600160a01b038381166001600160a01b0319831681179093556040519116919082907f8be0079c531659141344cd1fd0a4f28419497f9722a3daafe3b4186f6b6457e090600090a35050565b604051630a85bd0160e11b81526000906001600160a01b0385169063150b7a0290611a37903390899088908890600401612621565b6020604051808303816000875af1925050508015611a72575060408051601f3d908101601f19168201909252611a6f9181019061265e565b60015b611ad0573d808015611aa0576040519150601f19603f3d011682016040523d82523d6000602084013e611aa5565b606091505b508051600003611ac8576040516368d2bf6b60e11b815260040160405180910390fd5b805181602001fd5b6001600160e01b031916630a85bd0160e11b1490505b949350505050565b6000546001600160a01b038516611b1757604051622e076360e81b815260040160405180910390fd5b83600003611b385760405163b562e8dd60e01b815260040160405180910390fd5b6001600160a01b038516600081815260056020908152604080832080546fffffffffffffffffffffffffffffffff1981166001600160401b038083168c0181169182176801000000000000000067ffffffffffffffff1990941690921783900481168c01811690920217909155858452600490925290912080546001600160e01b031916909217600160a01b429092169190910217905580808501838015611be957506001600160a01b0387163b15155b15611c71575b60405182906001600160a01b038916906000907fddf252ad1be2c89b69c2b068fc378daa952ba7f163c4a11628f55a4df523b3ef908290a4611c3a6000888480600101955088611a02565b611c57576040516368d2bf6b60e11b815260040160405180910390fd5b808203611bef578260005414611c6c57600080fd5b611cb6565b5b6040516001830192906001600160a01b038916906000907fddf252ad1be2c89b69c2b068fc378daa952ba7f163c4a11628f55a4df523b3ef908290a4808203611c72575b50600055611882565b60606009805461073890612507565b606081600003611cf55750506040805180820190915260018152600360fc1b602082015290565b8160005b8115611d1f5780611d0981612608565b9150611d189050600a83612691565b9150611cf9565b6000816001600160401b03811115611d3957611d396120cf565b6040519080825280601f01601f191660200182016040528015611d63576020820181803683370190505b5090505b8415611ae657611d786001836126a5565b9150611d85600a866126bc565b611d9090603061258c565b60f81b818381518110611da557611da56125c3565b60200101906001600160f81b031916908160001a905350611dc7600a86612691565b9450611d67565b600082611ddb8584611de4565b14949350505050565b600081815b8451811015610c22576000858281518110611e0657611e066125c3565b60200260200101519050808311611e2c5760008381526020829052604090209250611e3d565b600081815260208490526040902092505b5080611e4881612608565b915050611de9565b828054611e5c90612507565b90600052602060002090601f016020900481019282611e7e5760008555611ec4565b82601f10611e975782800160ff19823516178555611ec4565b82800160010185558215611ec4579182015b82811115611ec4578235825591602001919060010190611ea9565b50611ed0929150611ed4565b5090565b5b80821115611ed05760008155600101611ed5565b6001600160e01b031981168114610ab957600080fd5b600060208284031215611f1157600080fd5b813561102c81611ee9565b60005b83811015611f37578181015183820152602001611f1f565b838111156111425750506000910152565b60008151808452611f60816020860160208601611f1c565b601f01601f19169290920160200192915050565b60208152600061102c6020830184611f48565b600060208284031215611f9957600080fd5b5035919050565b80356001600160a01b0381168114611fb757600080fd5b919050565b60008060408385031215611fcf57600080fd5b611fd883611fa0565b946020939093013593505050565b600080600060608486031215611ffb57600080fd5b61200484611fa0565b925061201260208501611fa0565b9150604084013590509250925092565b60006020828403121561203457600080fd5b81356003811061102c57600080fd5b60006020828403121561205557600080fd5b61102c82611fa0565b6000806020838503121561207157600080fd5b82356001600160401b038082111561208857600080fd5b818501915085601f83011261209c57600080fd5b8135818111156120ab57600080fd5b8660208285010111156120bd57600080fd5b60209290920196919550909350505050565b634e487b7160e01b600052604160045260246000fd5b604051601f8201601f191681016001600160401b038111828210171561210d5761210d6120cf565b604052919050565b6000602080838503121561212857600080fd5b82356001600160401b038082111561213f57600080fd5b818501915085601f83011261215357600080fd5b813581811115612165576121656120cf565b8060051b91506121768483016120e5565b818152918301840191848101908884111561219057600080fd5b938501935b838510156121ae57843582529385019390850190612195565b98975050505050505050565b6020808252825182820181905260009190848201906040850190845b81811015610e285761221183855180516001600160a01b031682526020808201516001600160401b0316908301526040908101511515910152565b92840192606092909201916001016121d6565b6020808252825182820181905260009190848201906040850190845b81811015610e2857835183529284019291840191600101612240565b60008060006060848603121561227157600080fd5b61227a84611fa0565b95602085013595506040909401359392505050565b600080604083850312156122a257600080fd5b6122ab83611fa0565b9150602083013580151581146122c057600080fd5b809150509250929050565b600080600080608085870312156122e157600080fd5b6122ea85611fa0565b935060206122f9818701611fa0565b93506040860135925060608601356001600160401b038082111561231c57600080fd5b818801915088601f83011261233057600080fd5b813581811115612342576123426120cf565b612354601f8201601f191685016120e5565b9150808252898482850101111561236a57600080fd5b808484018584013760008482840101525080935050505092959194509250565b60008083601f84011261239c57600080fd5b5081356001600160401b038111156123b357600080fd5b6020830191508360208260051b85010111156123ce57600080fd5b9250929050565b6000806000604084860312156123ea57600080fd5b83356001600160401b0381111561240057600080fd5b61240c8682870161238a565b909790965060209590950135949350505050565b81516001600160a01b031681526020808301516001600160401b03169082015260408083015115159082015260608101610723565b6000806040838503121561246857600080fd5b61247183611fa0565b915061247f60208401611fa0565b90509250929050565b6000806020838503121561249b57600080fd5b82356001600160401b038111156124b157600080fd5b6124bd8582860161238a565b90969095509350505050565b634e487b7160e01b600052602160045260246000fd5b602081016003831061250157634e487b7160e01b600052602160045260246000fd5b91905290565b600181811c9082168061251b57607f821691505b60208210810361253b57634e487b7160e01b600052602260045260246000fd5b50919050565b6020808252818101527f4f776e61626c653a2063616c6c6572206973206e6f7420746865206f776e6572604082015260600190565b634e487b7160e01b600052601160045260246000fd5b6000821982111561259f5761259f612576565b500190565b60008160001904831182151516156125be576125be612576565b500290565b634e487b7160e01b600052603260045260246000fd5b600083516125eb818460208801611f1c565b8351908301906125ff818360208801611f1c565b01949350505050565b60006001820161261a5761261a612576565b5060010190565b6001600160a01b038581168252841660208201526040810183905260806060820181905260009061265490830184611f48565b9695505050505050565b60006020828403121561267057600080fd5b815161102c81611ee9565b634e487b7160e01b600052601260045260246000fd5b6000826126a0576126a061267b565b500490565b6000828210156126b7576126b7612576565b500390565b6000826126cb576126cb61267b565b50069056fea2646970667358221220dc792f4fe56ed2fc5859ab177c6a66372a1d29b6ba1e263f7d10a864a3abc9b064736f6c634300080d0033",
  "linkReferences": {},
  "deployedLinkReferences": {}
}